{
  "_format": "hh-sol-artifact-1",
  "contractName": "L1BuildAgent",
  "sourceName": "contracts/oasys/L1/build/L1BuildAgent.sol",
  "abi": [
    {
      "inputs": [
        {
          "internalType": "address",
          "name": "_paramAddress",
          "type": "address"
        },
        {
          "internalType": "address",
          "name": "_depositAddress",
          "type": "address"
        },
        {
          "internalType": "address",
          "name": "_verifierInfoAddress",
          "type": "address"
        },
        {
          "internalType": "address",
          "name": "_step1Address",
          "type": "address"
        },
        {
          "internalType": "address",
          "name": "_step2Address",
          "type": "address"
        },
        {
          "internalType": "address",
          "name": "_step3Address",
          "type": "address"
        },
        {
          "internalType": "address",
          "name": "_step4Address",
          "type": "address"
        }
      ],
      "stateMutability": "nonpayable",
      "type": "constructor"
    },
    {
      "inputs": [
        {
          "internalType": "uint256",
          "name": "_chainId",
          "type": "uint256"
        },
        {
          "internalType": "address",
          "name": "_sequencer",
          "type": "address"
        },
        {
          "internalType": "address",
          "name": "_proposer",
          "type": "address"
        }
      ],
      "name": "build",
      "outputs": [],
      "stateMutability": "nonpayable",
      "type": "function"
    },
    {
      "inputs": [],
      "name": "depositAddress",
      "outputs": [
        {
          "internalType": "address",
          "name": "",
          "type": "address"
        }
      ],
      "stateMutability": "view",
      "type": "function"
    },
    {
      "inputs": [
        {
          "internalType": "uint256",
          "name": "_chainId",
          "type": "uint256"
        }
      ],
      "name": "getAddressManager",
      "outputs": [
        {
          "internalType": "address",
          "name": "",
          "type": "address"
        }
      ],
      "stateMutability": "view",
      "type": "function"
    },
    {
      "inputs": [
        {
          "internalType": "uint256",
          "name": "_chainId",
          "type": "uint256"
        }
      ],
      "name": "getNamedAddresses",
      "outputs": [
        {
          "internalType": "string[]",
          "name": "",
          "type": "string[]"
        },
        {
          "internalType": "address[]",
          "name": "",
          "type": "address[]"
        }
      ],
      "stateMutability": "view",
      "type": "function"
    },
    {
      "inputs": [
        {
          "internalType": "uint256",
          "name": "_chainId",
          "type": "uint256"
        },
        {
          "internalType": "address",
          "name": "_addressManager",
          "type": "address"
        },
        {
          "internalType": "address",
          "name": "_sequencer",
          "type": "address"
        },
        {
          "internalType": "address",
          "name": "_proposer",
          "type": "address"
        },
        {
          "internalType": "address",
          "name": "_canonicalTransactionChain",
          "type": "address"
        },
        {
          "internalType": "address",
          "name": "_ctcBatches",
          "type": "address"
        }
      ],
      "name": "setStep1Addresses",
      "outputs": [],
      "stateMutability": "nonpayable",
      "type": "function"
    },
    {
      "inputs": [
        {
          "internalType": "uint256",
          "name": "_chainId",
          "type": "uint256"
        },
        {
          "internalType": "address",
          "name": "_stateCommitmentChain",
          "type": "address"
        },
        {
          "internalType": "address",
          "name": "_sccBatches",
          "type": "address"
        },
        {
          "internalType": "address",
          "name": "_bondManager",
          "type": "address"
        }
      ],
      "name": "setStep2Addresses",
      "outputs": [],
      "stateMutability": "nonpayable",
      "type": "function"
    },
    {
      "inputs": [
        {
          "internalType": "uint256",
          "name": "_chainId",
          "type": "uint256"
        },
        {
          "internalType": "address",
          "name": "_l1CrossDomainMessenger",
          "type": "address"
        },
        {
          "internalType": "address",
          "name": "_l1CrossDomainMessengerProxy",
          "type": "address"
        },
        {
          "internalType": "address",
          "name": "_l1StandardBridgeProxy",
          "type": "address"
        },
        {
          "internalType": "address",
          "name": "_l1ERC721BridgeProxy",
          "type": "address"
        }
      ],
      "name": "setStep3Addresses",
      "outputs": [],
      "stateMutability": "nonpayable",
      "type": "function"
    },
    {
      "inputs": [],
      "name": "step1Address",
      "outputs": [
        {
          "internalType": "address",
          "name": "",
          "type": "address"
        }
      ],
      "stateMutability": "view",
      "type": "function"
    },
    {
      "inputs": [],
      "name": "step2Address",
      "outputs": [
        {
          "internalType": "address",
          "name": "",
          "type": "address"
        }
      ],
      "stateMutability": "view",
      "type": "function"
    },
    {
      "inputs": [],
      "name": "step3Address",
      "outputs": [
        {
          "internalType": "address",
          "name": "",
          "type": "address"
        }
      ],
      "stateMutability": "view",
      "type": "function"
    },
    {
      "inputs": [],
      "name": "step4Address",
      "outputs": [
        {
          "internalType": "address",
          "name": "",
          "type": "address"
        }
      ],
      "stateMutability": "view",
      "type": "function"
    }
  ],
  "bytecode": "0x60806040523480156200001157600080fd5b5060405162001339380380620013398339810160408190526200003491620002a2565b600080546001600160a01b03199081166001600160a01b038981169182179093556001805483168885161790556002805483168785161790556003805483168685161790556004805490921692841692909217815560405163189acdbd60e31b8152309181019190915263c4d66de890602401600060405180830381600087803b158015620000c257600080fd5b505af1158015620000d7573d6000803e3d6000fd5b505060015460405163485cc95560e01b81523060048201526001600160a01b038b81166024830152909116925063485cc9559150604401600060405180830381600087803b1580156200012957600080fd5b505af11580156200013e573d6000803e3d6000fd5b505060025460405163c0c53b8b60e01b81523060048201526001600160a01b038b811660248301528981166044830152909116925063c0c53b8b9150606401600060405180830381600087803b1580156200019857600080fd5b505af1158015620001ad573d6000803e3d6000fd5b505060035460405163189acdbd60e31b81523060048201526001600160a01b03909116925063c4d66de89150602401600060405180830381600087803b158015620001f757600080fd5b505af11580156200020c573d6000803e3d6000fd5b50506004805460405163485cc95560e01b815230928101929092526001600160a01b038b8116602484015216925063485cc9559150604401600060405180830381600087803b1580156200025f57600080fd5b505af115801562000274573d6000803e3d6000fd5b505050505050505050505062000337565b80516001600160a01b03811681146200029d57600080fd5b919050565b600080600080600080600060e0888a031215620002be57600080fd5b620002c98862000285565b9650620002d96020890162000285565b9550620002e96040890162000285565b9450620002f96060890162000285565b9350620003096080890162000285565b92506200031960a0890162000285565b91506200032960c0890162000285565b905092959891949750929550565b610ff280620003476000396000f3fe608060405234801561001057600080fd5b50600436106100c95760003560e01c806366ed9d1b11610081578063a708ca6b1161005b578063a708ca6b146101f7578063b61f370e1461020a578063c86fc4c91461022a57600080fd5b806366ed9d1b146101a457806385c89dad146101c45780639f05c9ea146101d757600080fd5b8063408d2693116100b2578063408d26931461012d5780634dbbce2a1461016357806365c11a6c1461018457600080fd5b80631ee5c97d146100ce57806328f833b7146100e3575b600080fd5b6100e16100dc366004610c5c565b61023d565b005b6000546101039073ffffffffffffffffffffffffffffffffffffffff1681565b60405173ffffffffffffffffffffffffffffffffffffffff90911681526020015b60405180910390f35b61010361013b366004610c98565b60009081526005602052604090205473ffffffffffffffffffffffffffffffffffffffff1690565b610176610171366004610c98565b6104fd565b604051610124929190610d02565b6004546101039073ffffffffffffffffffffffffffffffffffffffff1681565b6003546101039073ffffffffffffffffffffffffffffffffffffffff1681565b6100e16101d2366004610ded565b61065a565b6001546101039073ffffffffffffffffffffffffffffffffffffffff1681565b6100e1610205366004610e4b565b61081e565b6002546101039073ffffffffffffffffffffffffffffffffffffffff1681565b6100e1610238366004610e98565b610948565b6000546040517ff3701da200000000000000000000000000000000000000000000000000000000815233600482018190529173ffffffffffffffffffffffffffffffffffffffff169063f3701da290602401600060405180830381600087803b1580156102a957600080fd5b505af11580156102bd573d6000803e3d6000fd5b50506001546040517f1ee5c97d0000000000000000000000000000000000000000000000000000000081526004810188905273ffffffffffffffffffffffffffffffffffffffff878116602483015286811660448301529091169250631ee5c97d9150606401600060405180830381600087803b15801561033d57600080fd5b505af1158015610351573d6000803e3d6000fd5b50506002546040517f7ef7cca20000000000000000000000000000000000000000000000000000000081526004810188905273ffffffffffffffffffffffffffffffffffffffff85811660248301529091169250637ef7cca29150604401600060405180830381600087803b1580156103c957600080fd5b505af11580156103dd573d6000803e3d6000fd5b50506003546040517f7ef7cca20000000000000000000000000000000000000000000000000000000081526004810188905273ffffffffffffffffffffffffffffffffffffffff85811660248301529091169250637ef7cca29150604401600060405180830381600087803b15801561045557600080fd5b505af1158015610469573d6000803e3d6000fd5b5050600480546040517f7ef7cca200000000000000000000000000000000000000000000000000000000815291820188905273ffffffffffffffffffffffffffffffffffffffff8581166024840152169250637ef7cca29150604401600060405180830381600087803b1580156104df57600080fd5b505af11580156104f3573d6000803e3d6000fd5b5050505050505050565b60008181526006602090815260408083206007835281842081548351818602810186019094528084526060958695939492938592919084015b828210156105e257838290600052602060002001805461055590610f05565b80601f016020809104026020016040519081016040528092919081815260200182805461058190610f05565b80156105ce5780601f106105a3576101008083540402835291602001916105ce565b820191906000526020600020905b8154815290600101906020018083116105b157829003601f168201915b505050505081526020019060010190610536565b5050505091508080548060200260200160405190810160405280929190818152602001828054801561064a57602002820191906000526020600020905b815473ffffffffffffffffffffffffffffffffffffffff16815260019091019060200180831161061f575b5050505050905091509150915091565b60035473ffffffffffffffffffffffffffffffffffffffff1633146106e0576040517f08c379a000000000000000000000000000000000000000000000000000000000815260206004820152601e60248201527f6f6e6c7920746865204c314275696c6453746570332063616e2063616c6c000060448201526064015b60405180910390fd5b610720856040518060400160405280601a81526020017f4f564d5f4c3143726f7373446f6d61696e4d657373656e67657200000000000081525086610b01565b61074385604051806060016040528060218152602001610f7b6021913985610b01565b610783856040518060400160405280601b81526020017f50726f78795f5f4f564d5f4c315374616e64617264427269646765000000000081525084610b01565b6107c3856040518060400160405280601981526020017f50726f78795f5f4f564d5f4c314552433732314272696467650000000000000081525083610b01565b610817856040518060400160405280601681526020017f4c3243726f7373446f6d61696e4d657373656e67657200000000000000000000815250734200000000000000000000000000000000000007610b01565b5050505050565b60025473ffffffffffffffffffffffffffffffffffffffff16331461089f576040517f08c379a000000000000000000000000000000000000000000000000000000000815260206004820152601e60248201527f6f6e6c7920746865204c314275696c6453746570322063616e2063616c6c000060448201526064016106d7565b6108df846040518060400160405280601481526020017f5374617465436f6d6d69746d656e74436861696e00000000000000000000000081525085610b01565b61090284604051806060016040528060218152602001610f5a6021913984610b01565b610942846040518060400160405280600b81526020017f426f6e644d616e6167657200000000000000000000000000000000000000000081525083610b01565b50505050565b60015473ffffffffffffffffffffffffffffffffffffffff1633146109c9576040517f08c379a000000000000000000000000000000000000000000000000000000000815260206004820152601e60248201527f6f6e6c7920746865204c314275696c6453746570312063616e2063616c6c000060448201526064016106d7565b60008681526005602090815260409182902080547fffffffffffffffffffffffff00000000000000000000000000000000000000001673ffffffffffffffffffffffffffffffffffffffff89161790558151808301909252600d82527f4f564d5f53657175656e6365720000000000000000000000000000000000000090820152610a5690879086610b01565b610a96866040518060400160405280600c81526020017f4f564d5f50726f706f736572000000000000000000000000000000000000000081525085610b01565b610ad6866040518060400160405280601981526020017f43616e6f6e6963616c5472616e73616374696f6e436861696e0000000000000081525084610b01565b610af986604051806060016040528060218152602001610f9c6021913983610b01565b505050505050565b600083815260066020908152604082208054600181018255908352918190208451610b33939190910191850190610b9a565b50600092835260076020908152604084208054600181018255908552932090920180547fffffffffffffffffffffffff00000000000000000000000000000000000000001673ffffffffffffffffffffffffffffffffffffffff9093169290921790915550565b828054610ba690610f05565b90600052602060002090601f016020900481019282610bc85760008555610c0e565b82601f10610be157805160ff1916838001178555610c0e565b82800160010185558215610c0e579182015b82811115610c0e578251825591602001919060010190610bf3565b50610c1a929150610c1e565b5090565b5b80821115610c1a5760008155600101610c1f565b803573ffffffffffffffffffffffffffffffffffffffff81168114610c5757600080fd5b919050565b600080600060608486031215610c7157600080fd5b83359250610c8160208501610c33565b9150610c8f60408501610c33565b90509250925092565b600060208284031215610caa57600080fd5b5035919050565b600081518084526020808501945080840160005b83811015610cf757815173ffffffffffffffffffffffffffffffffffffffff1687529582019590820190600101610cc5565b509495945050505050565b6000604082016040835280855180835260608501915060608160051b860101925060208088016000805b84811015610dcd577fffffffffffffffffffffffffffffffffffffffffffffffffffffffffffffffa089880301865282518051808952835b81811015610d7f578281018701518a82018801528601610d64565b81811115610d8f578487838c0101525b50601f017fffffffffffffffffffffffffffffffffffffffffffffffffffffffffffffffe01697909701840196509483019491830191600101610d2c565b50505085840381870152505050610de48185610cb1565b95945050505050565b600080600080600060a08688031215610e0557600080fd5b85359450610e1560208701610c33565b9350610e2360408701610c33565b9250610e3160608701610c33565b9150610e3f60808701610c33565b90509295509295909350565b60008060008060808587031215610e6157600080fd5b84359350610e7160208601610c33565b9250610e7f60408601610c33565b9150610e8d60608601610c33565b905092959194509250565b60008060008060008060c08789031215610eb157600080fd5b86359550610ec160208801610c33565b9450610ecf60408801610c33565b9350610edd60608801610c33565b9250610eeb60808801610c33565b9150610ef960a08801610c33565b90509295509295509295565b600181811c90821680610f1957607f821691505b60208210811415610f53577f4e487b7100000000000000000000000000000000000000000000000000000000600052602260045260246000fd5b5091905056fe436861696e53746f72616765436f6e7461696e65722d5343432d6261746368657350726f78795f5f4f564d5f4c3143726f7373446f6d61696e4d657373656e676572436861696e53746f72616765436f6e7461696e65722d4354432d62617463686573a264697066735822122044a3aeef3d9a1c0d46aefe28d7f67d4420099981854fa35a0bddb66c65688bd264736f6c63430008090033",
  "linkReferences": {},
  "deployedLinkReferences": {}
}