{
  "_format": "hh-sol-artifact-1",
  "contractName": "L1BuildDeposit",
  "sourceName": "contracts/oasys/L1/build/L1BuildDeposit.sol",
  "abi": [
    {
      "inputs": [
        {
          "internalType": "uint256",
          "name": "_requiredAmount",
          "type": "uint256"
        },
        {
          "internalType": "uint256",
          "name": "_lockedBlock",
          "type": "uint256"
        },
        {
          "internalType": "address",
          "name": "_allowlist",
          "type": "address"
        }
      ],
      "stateMutability": "nonpayable",
      "type": "constructor"
    },
    {
      "anonymous": false,
      "inputs": [
        {
          "indexed": true,
          "internalType": "address",
          "name": "builder",
          "type": "address"
        },
        {
          "indexed": false,
          "internalType": "uint256",
          "name": "block",
          "type": "uint256"
        }
      ],
      "name": "Build",
      "type": "event"
    },
    {
      "anonymous": false,
      "inputs": [
        {
          "indexed": true,
          "internalType": "address",
          "name": "builder",
          "type": "address"
        },
        {
          "indexed": false,
          "internalType": "address",
          "name": "depositer",
          "type": "address"
        },
        {
          "indexed": false,
          "internalType": "uint256",
          "name": "amount",
          "type": "uint256"
        }
      ],
      "name": "Deposit",
      "type": "event"
    },
    {
      "anonymous": false,
      "inputs": [
        {
          "indexed": true,
          "internalType": "address",
          "name": "builder",
          "type": "address"
        },
        {
          "indexed": false,
          "internalType": "address",
          "name": "depositer",
          "type": "address"
        },
        {
          "indexed": false,
          "internalType": "uint256",
          "name": "amount",
          "type": "uint256"
        }
      ],
      "name": "Withdrawal",
      "type": "event"
    },
    {
      "inputs": [],
      "name": "agentAddress",
      "outputs": [
        {
          "internalType": "address",
          "name": "",
          "type": "address"
        }
      ],
      "stateMutability": "view",
      "type": "function"
    },
    {
      "inputs": [],
      "name": "allowlistAddress",
      "outputs": [
        {
          "internalType": "address",
          "name": "",
          "type": "address"
        }
      ],
      "stateMutability": "view",
      "type": "function"
    },
    {
      "inputs": [
        {
          "internalType": "address",
          "name": "_builder",
          "type": "address"
        }
      ],
      "name": "build",
      "outputs": [],
      "stateMutability": "nonpayable",
      "type": "function"
    },
    {
      "inputs": [
        {
          "internalType": "address",
          "name": "_builder",
          "type": "address"
        }
      ],
      "name": "deposit",
      "outputs": [],
      "stateMutability": "payable",
      "type": "function"
    },
    {
      "inputs": [
        {
          "internalType": "address",
          "name": "_builder",
          "type": "address"
        }
      ],
      "name": "getBuildBlock",
      "outputs": [
        {
          "internalType": "uint256",
          "name": "",
          "type": "uint256"
        }
      ],
      "stateMutability": "view",
      "type": "function"
    },
    {
      "inputs": [
        {
          "internalType": "address",
          "name": "_builder",
          "type": "address"
        },
        {
          "internalType": "address",
          "name": "_depositer",
          "type": "address"
        }
      ],
      "name": "getDepositAmount",
      "outputs": [
        {
          "internalType": "uint256",
          "name": "",
          "type": "uint256"
        }
      ],
      "stateMutability": "view",
      "type": "function"
    },
    {
      "inputs": [
        {
          "internalType": "address",
          "name": "_builder",
          "type": "address"
        }
      ],
      "name": "getDepositTotal",
      "outputs": [
        {
          "internalType": "uint256",
          "name": "",
          "type": "uint256"
        }
      ],
      "stateMutability": "view",
      "type": "function"
    },
    {
      "inputs": [
        {
          "internalType": "address",
          "name": "_agentAddress",
          "type": "address"
        }
      ],
      "name": "initialize",
      "outputs": [],
      "stateMutability": "nonpayable",
      "type": "function"
    },
    {
      "inputs": [],
      "name": "lockedBlock",
      "outputs": [
        {
          "internalType": "uint256",
          "name": "",
          "type": "uint256"
        }
      ],
      "stateMutability": "view",
      "type": "function"
    },
    {
      "inputs": [],
      "name": "requiredAmount",
      "outputs": [
        {
          "internalType": "uint256",
          "name": "",
          "type": "uint256"
        }
      ],
      "stateMutability": "view",
      "type": "function"
    },
    {
      "inputs": [
        {
          "internalType": "address",
          "name": "_builder",
          "type": "address"
        },
        {
          "internalType": "uint256",
          "name": "_amount",
          "type": "uint256"
        }
      ],
      "name": "withdraw",
      "outputs": [],
      "stateMutability": "nonpayable",
      "type": "function"
    }
  ],
  "bytecode": "0x608060405234801561001057600080fd5b50604051610d5f380380610d5f83398101604081905261002f9161005c565b600092909255600155600280546001600160a01b0319166001600160a01b039092169190911790556100a2565b60008060006060848603121561007157600080fd5b83516020850151604086015191945092506001600160a01b038116811461009757600080fd5b809150509250925092565b610cae806100b16000396000f3fe6080604052600436106100bc5760003560e01c8063c4d66de811610074578063f3701da21161004e578063f3701da21461023a578063f3fef3a31461025a578063f45b1b3a1461027a57600080fd5b8063c4d66de8146101c2578063c76474db146101e4578063f340fa011461022757600080fd5b806348b9ef40116100a557806348b9ef40146101695780636504eff61461017f5780636c5928bf146101ac57600080fd5b8063061be895146100c15780633861369014610117575b600080fd5b3480156100cd57600080fd5b506101046100dc366004610b3e565b73ffffffffffffffffffffffffffffffffffffffff1660009081526006602052604090205490565b6040519081526020015b60405180910390f35b34801561012357600080fd5b506003546101449073ffffffffffffffffffffffffffffffffffffffff1681565b60405173ffffffffffffffffffffffffffffffffffffffff909116815260200161010e565b34801561017557600080fd5b5061010460005481565b34801561018b57600080fd5b506002546101449073ffffffffffffffffffffffffffffffffffffffff1681565b3480156101b857600080fd5b5061010460015481565b3480156101ce57600080fd5b506101e26101dd366004610b3e565b6102cd565b005b3480156101f057600080fd5b506101046101ff366004610b3e565b73ffffffffffffffffffffffffffffffffffffffff1660009081526004602052604090205490565b6101e2610235366004610b3e565b610399565b34801561024657600080fd5b506101e2610255366004610b3e565b61061c565b34801561026657600080fd5b506101e2610275366004610b60565b61081b565b34801561028657600080fd5b50610104610295366004610b8a565b73ffffffffffffffffffffffffffffffffffffffff918216600090815260056020908152604080832093909416825291909152205490565b60035473ffffffffffffffffffffffffffffffffffffffff1615610352576040517f08c379a000000000000000000000000000000000000000000000000000000000815260206004820152601460248201527f696e697469616c697a65206f6e6c79206f6e636500000000000000000000000060448201526064015b60405180910390fd5b600380547fffffffffffffffffffffffff00000000000000000000000000000000000000001673ffffffffffffffffffffffffffffffffffffffff92909216919091179055565b6002546040517f322433e300000000000000000000000000000000000000000000000000000000815273ffffffffffffffffffffffffffffffffffffffff83811660048301529091169063322433e39060240160206040518083038186803b15801561040457600080fd5b505afa158015610418573d6000803e3d6000fd5b505050506040513d601f19601f8201168201806040525081019061043c9190610bbd565b6104a2576040517f08c379a000000000000000000000000000000000000000000000000000000000815260206004820152601360248201527f6275696c646572206e6f7420616c6c6f776564000000000000000000000000006044820152606401610349565b6000805473ffffffffffffffffffffffffffffffffffffffff831682526004602052604090912054339134916104d9908390610c0e565b1115610541576040517f08c379a000000000000000000000000000000000000000000000000000000000815260206004820152601360248201527f6f766572206465706f73697420616d6f756e74000000000000000000000000006044820152606401610349565b73ffffffffffffffffffffffffffffffffffffffff831660009081526004602052604081208054839290610576908490610c0e565b909155505073ffffffffffffffffffffffffffffffffffffffff8084166000908152600560209081526040808320938616835292905290812080548392906105bf908490610c0e565b90915550506040805173ffffffffffffffffffffffffffffffffffffffff8481168252602082018490528516917f5548c837ab068cf56a2c2479df0882a4922fd203edb7517321831d95078c5f62910160405180910390a2505050565b60035473ffffffffffffffffffffffffffffffffffffffff16331461069d576040517f08c379a000000000000000000000000000000000000000000000000000000000815260206004820152601d60248201527f6f6e6c79204c314275696c644167656e742063616e2063616c6c206d650000006044820152606401610349565b6000805473ffffffffffffffffffffffffffffffffffffffff831682526004602052604090912054101561072d576040517f08c379a000000000000000000000000000000000000000000000000000000000815260206004820152601760248201527f6465706f73697420616d6f756e742073686f72746167650000000000000000006044820152606401610349565b73ffffffffffffffffffffffffffffffffffffffff8116600090815260066020526040902054156107ba576040517f08c379a000000000000000000000000000000000000000000000000000000000815260206004820152601860248201527f616c7265616479206275696c74206279206275696c64657200000000000000006044820152606401610349565b73ffffffffffffffffffffffffffffffffffffffff8116600081815260066020908152604091829020439081905591519182527fd8406a18b0c7572d0adae5f0a479d5d802035e2c506e9353b092d25997f61a62910160405180910390a250565b60015473ffffffffffffffffffffffffffffffffffffffff8316600090815260066020526040902054339143916108529190610c0e565b106108b9576040517f08c379a000000000000000000000000000000000000000000000000000000000815260206004820152601060248201527f7768696c65204f4153206c6f636b6564000000000000000000000000000000006044820152606401610349565b73ffffffffffffffffffffffffffffffffffffffff808416600090815260056020908152604080832093851683529290522054821115610955576040517f08c379a000000000000000000000000000000000000000000000000000000000815260206004820152601c60248201527f796f7572206465706f73697420616d6f756e742073686f7274616765000000006044820152606401610349565b73ffffffffffffffffffffffffffffffffffffffff83166000908152600460205260408120805484929061098a908490610c26565b909155505073ffffffffffffffffffffffffffffffffffffffff8084166000908152600560209081526040808320938516835292905290812080548492906109d3908490610c26565b90915550506040805160008082526020820190925273ffffffffffffffffffffffffffffffffffffffff8316908490604051610a0f9190610c3d565b60006040518083038185875af1925050503d8060008114610a4c576040519150601f19603f3d011682016040523d82523d6000602084013e610a51565b606091505b5050905080610abc576040517f08c379a000000000000000000000000000000000000000000000000000000000815260206004820152601360248201527f4f4153207472616e73666572206661696c6564000000000000000000000000006044820152606401610349565b6040805173ffffffffffffffffffffffffffffffffffffffff8481168252602082018690528616917f2717ead6b9200dd235aad468c9809ea400fe33ac69b5bfaa6d3e90fc922b6398910160405180910390a250505050565b803573ffffffffffffffffffffffffffffffffffffffff81168114610b3957600080fd5b919050565b600060208284031215610b5057600080fd5b610b5982610b15565b9392505050565b60008060408385031215610b7357600080fd5b610b7c83610b15565b946020939093013593505050565b60008060408385031215610b9d57600080fd5b610ba683610b15565b9150610bb460208401610b15565b90509250929050565b600060208284031215610bcf57600080fd5b81518015158114610b5957600080fd5b7f4e487b7100000000000000000000000000000000000000000000000000000000600052601160045260246000fd5b60008219821115610c2157610c21610bdf565b500190565b600082821015610c3857610c38610bdf565b500390565b6000825160005b81811015610c5e5760208186018101518583015201610c44565b81811115610c6d576000828501525b50919091019291505056fea264697066735822122063d1329cdc3a236335400c19761fdac39c2712ccfd2ecdbdf28a229e2f618fb464736f6c63430008090033",
  "linkReferences": {},
  "deployedLinkReferences": {}
}