{"abi":[{"type":"constructor","inputs":[{"name":"_l2Oracle","type":"address","internalType":"contract L2OutputOracle"},{"name":"_guardian","type":"address","internalType":"address"},{"name":"_paused","type":"bool","internalType":"bool"},{"name":"_systemConfig","type":"address","internalType":"contract SystemConfig"}],"stateMutability":"nonpayable"},{"type":"receive","stateMutability":"payable"},{"type":"function","name":"GUARDIAN","inputs":[],"outputs":[{"name":"","type":"address","internalType":"address"}],"stateMutability":"view"},{"type":"function","name":"L2_ORACLE","inputs":[],"outputs":[{"name":"","type":"address","internalType":"contract L2OutputOracle"}],"stateMutability":"view"},{"type":"function","name":"SYSTEM_CONFIG","inputs":[],"outputs":[{"name":"","type":"address","internalType":"contract SystemConfig"}],"stateMutability":"view"},{"type":"function","name":"depositTransaction","inputs":[{"name":"_to","type":"address","internalType":"address"},{"name":"_value","type":"uint256","internalType":"uint256"},{"name":"_gasLimit","type":"uint64","internalType":"uint64"},{"name":"_isCreation","type":"bool","internalType":"bool"},{"name":"_data","type":"bytes","internalType":"bytes"}],"outputs":[],"stateMutability":"payable"},{"type":"function","name":"donateETH","inputs":[],"outputs":[],"stateMutability":"payable"},{"type":"function","name":"finalizeWithdrawalTransaction","inputs":[{"name":"_tx","type":"tuple","internalType":"struct Types.WithdrawalTransaction","components":[{"name":"nonce","type":"uint256","internalType":"uint256"},{"name":"sender","type":"address","internalType":"address"},{"name":"target","type":"address","internalType":"address"},{"name":"value","type":"uint256","internalType":"uint256"},{"name":"gasLimit","type":"uint256","internalType":"uint256"},{"name":"data","type":"bytes","internalType":"bytes"}]}],"outputs":[],"stateMutability":"nonpayable"},{"type":"function","name":"finalizeWithdrawalTransactions","inputs":[{"name":"_txs","type":"tuple[]","internalType":"struct Types.WithdrawalTransaction[]","components":[{"name":"nonce","type":"uint256","internalType":"uint256"},{"name":"sender","type":"address","internalType":"address"},{"name":"target","type":"address","internalType":"address"},{"name":"value","type":"uint256","internalType":"uint256"},{"name":"gasLimit","type":"uint256","internalType":"uint256"},{"name":"data","type":"bytes","internalType":"bytes"}]}],"outputs":[],"stateMutability":"nonpayable"},{"type":"function","name":"finalizedWithdrawals","inputs":[{"name":"","type":"bytes32","internalType":"bytes32"}],"outputs":[{"name":"","type":"bool","internalType":"bool"}],"stateMutability":"view"},{"type":"function","name":"guardian","inputs":[],"outputs":[{"name":"","type":"address","internalType":"address"}],"stateMutability":"view"},{"type":"function","name":"initialize","inputs":[{"name":"_paused","type":"bool","internalType":"bool"}],"outputs":[],"stateMutability":"nonpayable"},{"type":"function","name":"initializeWithRelayer","inputs":[{"name":"_paused","type":"bool","internalType":"bool"},{"name":"_messageRelayer","type":"address","internalType":"address"}],"outputs":[],"stateMutability":"nonpayable"},{"type":"function","name":"isOutputFinalized","inputs":[{"name":"_l2OutputIndex","type":"uint256","internalType":"uint256"}],"outputs":[{"name":"","type":"bool","internalType":"bool"}],"stateMutability":"view"},{"type":"function","name":"l2Oracle","inputs":[],"outputs":[{"name":"","type":"address","internalType":"contract L2OutputOracle"}],"stateMutability":"view"},{"type":"function","name":"l2Sender","inputs":[],"outputs":[{"name":"","type":"address","internalType":"address"}],"stateMutability":"view"},{"type":"function","name":"messageRelayer","inputs":[],"outputs":[{"name":"","type":"address","internalType":"address"}],"stateMutability":"view"},{"type":"function","name":"minimumGasLimit","inputs":[{"name":"_byteCount","type":"uint64","internalType":"uint64"}],"outputs":[{"name":"","type":"uint64","internalType":"uint64"}],"stateMutability":"pure"},{"type":"function","name":"params","inputs":[],"outputs":[{"name":"prevBaseFee","type":"uint128","internalType":"uint128"},{"name":"prevBoughtGas","type":"uint64","internalType":"uint64"},{"name":"prevBlockNum","type":"uint64","internalType":"uint64"}],"stateMutability":"view"},{"type":"function","name":"pause","inputs":[],"outputs":[],"stateMutability":"nonpayable"},{"type":"function","name":"paused","inputs":[],"outputs":[{"name":"","type":"bool","internalType":"bool"}],"stateMutability":"view"},{"type":"function","name":"proveWithdrawalTransaction","inputs":[{"name":"_tx","type":"tuple","internalType":"struct Types.WithdrawalTransaction","components":[{"name":"nonce","type":"uint256","internalType":"uint256"},{"name":"sender","type":"address","internalType":"address"},{"name":"target","type":"address","internalType":"address"},{"name":"value","type":"uint256","internalType":"uint256"},{"name":"gasLimit","type":"uint256","internalType":"uint256"},{"name":"data","type":"bytes","internalType":"bytes"}]},{"name":"_l2OutputIndex","type":"uint256","internalType":"uint256"},{"name":"_outputRootProof","type":"tuple","internalType":"struct Types.OutputRootProof","components":[{"name":"version","type":"bytes32","internalType":"bytes32"},{"name":"stateRoot","type":"bytes32","internalType":"bytes32"},{"name":"messagePasserStorageRoot","type":"bytes32","internalType":"bytes32"},{"name":"latestBlockhash","type":"bytes32","internalType":"bytes32"}]},{"name":"_withdrawalProof","type":"bytes[]","internalType":"bytes[]"}],"outputs":[],"stateMutability":"nonpayable"},{"type":"function","name":"provenWithdrawals","inputs":[{"name":"","type":"bytes32","internalType":"bytes32"}],"outputs":[{"name":"outputRoot","type":"bytes32","internalType":"bytes32"},{"name":"timestamp","type":"uint128","internalType":"uint128"},{"name":"l2OutputIndex","type":"uint128","internalType":"uint128"}],"stateMutability":"view"},{"type":"function","name":"setMessageRelayer","inputs":[{"name":"newRelayer","type":"address","internalType":"address"}],"outputs":[],"stateMutability":"nonpayable"},{"type":"function","name":"systemConfig","inputs":[],"outputs":[{"name":"","type":"address","internalType":"contract SystemConfig"}],"stateMutability":"view"},{"type":"function","name":"unpause","inputs":[],"outputs":[],"stateMutability":"nonpayable"},{"type":"function","name":"version","inputs":[],"outputs":[{"name":"","type":"string","internalType":"string"}],"stateMutability":"view"},{"type":"event","name":"Initialized","inputs":[{"name":"version","type":"uint8","indexed":false,"internalType":"uint8"}],"anonymous":false},{"type":"event","name":"MessageRelayerSet","inputs":[{"name":"relayer","type":"address","indexed":true,"internalType":"address"}],"anonymous":false},{"type":"event","name":"Paused","inputs":[{"name":"account","type":"address","indexed":false,"internalType":"address"}],"anonymous":false},{"type":"event","name":"TransactionDeposited","inputs":[{"name":"from","type":"address","indexed":true,"internalType":"address"},{"name":"to","type":"address","indexed":true,"internalType":"address"},{"name":"version","type":"uint256","indexed":true,"internalType":"uint256"},{"name":"opaqueData","type":"bytes","indexed":false,"internalType":"bytes"}],"anonymous":false},{"type":"event","name":"Unpaused","inputs":[{"name":"account","type":"address","indexed":false,"internalType":"address"}],"anonymous":false},{"type":"event","name":"WithdrawalFinalized","inputs":[{"name":"withdrawalHash","type":"bytes32","indexed":true,"internalType":"bytes32"},{"name":"success","type":"bool","indexed":false,"internalType":"bool"}],"anonymous":false},{"type":"event","name":"WithdrawalProven","inputs":[{"name":"withdrawalHash","type":"bytes32","indexed":true,"internalType":"bytes32"},{"name":"from","type":"address","indexed":true,"internalType":"address"},{"name":"to","type":"address","indexed":true,"internalType":"address"}],"anonymous":false}],"bytecode":{"object":"0x60e06040523480156200001157600080fd5b50604051620056bb380380620056bb8339810160408190526200003491620002a2565b6001600160a01b0380851660805280841660c052811660a052838383836200005c826200006a565b50505050505050506200030e565b62000080816200008360201b62001bc81760201c565b50565b600054610100900460ff1615808015620000a45750600054600160ff909116105b80620000d45750620000c130620001da60201b62001d9a1760201c565b158015620000d4575060005460ff166001145b6200013d5760405162461bcd60e51b815260206004820152602e60248201527f496e697469616c697a61626c653a20636f6e747261637420697320616c72656160448201526d191e481a5b9a5d1a585b1a5e995960921b60648201526084015b60405180910390fd5b6000805460ff19166001179055801562000161576000805461ff0019166101001790555b603280546001600160a01b03191661dead1790556035805483151560ff199091161790556200018f620001e9565b8015620001d6576000805461ff0019169055604051600181527f7f26b83ff96e1f2b6a682f133852f6798a09c465da95921460cefb38474024989060200160405180910390a15b5050565b6001600160a01b03163b151590565b600054610100900460ff16620002565760405162461bcd60e51b815260206004820152602b60248201527f496e697469616c697a61626c653a20636f6e7472616374206973206e6f74206960448201526a6e697469616c697a696e6760a81b606482015260840162000134565b60408051606081018252633b9aca0080825260006020830152436001600160401b031691909201819052600160c01b0217600155565b6001600160a01b03811681146200008057600080fd5b60008060008060808587031215620002b957600080fd5b8451620002c6816200028c565b6020860151909450620002d9816200028c565b60408601519093508015158114620002f057600080fd5b606086015190925062000303816200028c565b939692955090935050565b60805160a05160c05161531b620003a06000396000818161029a015281816103dd0152818161096a0152818161101b01526112770152600081816102520152818161066f01526123db0152600081816101d70152818161044301528181610b8501528181610d4c015281816111d30152818161152501528181611763015281816121c3015261258c015261531b6000f3fe6080604052600436106101995760003560e01c80638456cb59116100e1578063a35d99df1161008a578063e965084c11610064578063e965084c146105be578063e9e05c421461064a578063f04987501461065d578063fc69f6e81461069157600080fd5b8063a35d99df146104c4578063cff0ab96146104fd578063d53a822f1461059e57600080fd5b80639b5f694a116100bb5780639b5f694a146104345780639bf62d8214610467578063a14238e71461049457600080fd5b80638456cb59146103ff5780638b4c40b0146101be5780638c3152e91461041457600080fd5b80634f3b457e116101435780636cfd26e91161011d5780636cfd26e91461038b5780636dbffb78146103ab578063724c184c146103cb57600080fd5b80634f3b457e146102de57806354fd4d501461030b5780635c975abb1461036157600080fd5b80633f4ba83a116101745780633f4ba83a14610276578063452a93201461028b5780634870496f146102be57600080fd5b80621c2ff6146101c5578063057bbee11461022357806333d7e2bd1461024357600080fd5b366101c0576101be3334620186a06000604051806020016040528060008152506106b1565b005b600080fd5b3480156101d157600080fd5b506101f97f000000000000000000000000000000000000000000000000000000000000000081565b60405173ffffffffffffffffffffffffffffffffffffffff90911681526020015b60405180910390f35b34801561022f57600080fd5b506101be61023e36600461470b565b6108fe565b34801561024f57600080fd5b507f00000000000000000000000000000000000000000000000000000000000000006101f9565b34801561028257600080fd5b506101be610952565b34801561029757600080fd5b507f00000000000000000000000000000000000000000000000000000000000000006101f9565b3480156102ca57600080fd5b506101be6102d93660046148eb565b610a5b565b3480156102ea57600080fd5b506064546101f99073ffffffffffffffffffffffffffffffffffffffff1681565b34801561031757600080fd5b506103546040518060400160405280600681526020017f312e31312e30000000000000000000000000000000000000000000000000000081525081565b60405161021a91906149f2565b34801561036d57600080fd5b5060355461037b9060ff1681565b604051901515815260200161021a565b34801561039757600080fd5b506101be6103a6366004614a05565b611003565b3480156103b757600080fd5b5061037b6103c6366004614a20565b611188565b3480156103d757600080fd5b506101f97f000000000000000000000000000000000000000000000000000000000000000081565b34801561040b57600080fd5b506101be61125f565b34801561042057600080fd5b506101be61042f366004614a39565b611365565b34801561044057600080fd5b507f00000000000000000000000000000000000000000000000000000000000000006101f9565b34801561047357600080fd5b506032546101f99073ffffffffffffffffffffffffffffffffffffffff1681565b3480156104a057600080fd5b5061037b6104af366004614a20565b60336020526000908152604090205460ff1681565b3480156104d057600080fd5b506104e46104df366004614a8e565b611b56565b60405167ffffffffffffffff909116815260200161021a565b34801561050957600080fd5b50600154610565906fffffffffffffffffffffffffffffffff81169067ffffffffffffffff7001000000000000000000000000000000008204811691780100000000000000000000000000000000000000000000000090041683565b604080516fffffffffffffffffffffffffffffffff909416845267ffffffffffffffff928316602085015291169082015260600161021a565b3480156105aa57600080fd5b506101be6105b9366004614ab9565b611b6f565b3480156105ca57600080fd5b5061061c6105d9366004614a20565b603460205260009081526040902080546001909101546fffffffffffffffffffffffffffffffff8082169170010000000000000000000000000000000090041683565b604080519384526fffffffffffffffffffffffffffffffff928316602085015291169082015260600161021a565b6101be610658366004614ad4565b6106b1565b34801561066957600080fd5b506101f97f000000000000000000000000000000000000000000000000000000000000000081565b34801561069d57600080fd5b506101be6106ac366004614b4d565b611b7b565b8260005a9050831561074e5773ffffffffffffffffffffffffffffffffffffffff87161561074e576040805162461bcd60e51b81526020600482015260248101919091527f4f7074696d69736d506f7274616c3a206d7573742073656e6420746f2061646460448201527f72657373283029207768656e206372656174696e67206120636f6e747261637460648201526084015b60405180910390fd5b6107588351611b56565b67ffffffffffffffff168567ffffffffffffffff1610156107e15760405162461bcd60e51b815260206004820152602360248201527f4f7074696d69736d506f7274616c3a20676173206c696d697420746f6f20736d60448201527f616c6c00000000000000000000000000000000000000000000000000000000006064820152608401610745565b6201d4c0835111156108355760405162461bcd60e51b815260206004820152601e60248201527f4f7074696d69736d506f7274616c3a206461746120746f6f206c6172676500006044820152606401610745565b33328114610856575033731111000000000000000000000000000000001111015b60003488888888604051602001610871959493929190614b80565b604051602081830303815290604052905060008973ffffffffffffffffffffffffffffffffffffffff168373ffffffffffffffffffffffffffffffffffffffff167fb3813568d9991fc951961fcb4c784893574240a28925604d09fc577c55bb7c32846040516108e191906149f2565b60405180910390a450506108f58282611db6565b50505050505050565b8060005b8181101561094c5761093a84848381811061091f5761091f614be5565b90506020028101906109319190614c14565b61042f90614c52565b8061094481614c8d565b915050610902565b50505050565b3373ffffffffffffffffffffffffffffffffffffffff7f000000000000000000000000000000000000000000000000000000000000000016146109fd5760405162461bcd60e51b815260206004820152602960248201527f4f7074696d69736d506f7274616c3a206f6e6c7920677561726469616e20636160448201527f6e20756e706175736500000000000000000000000000000000000000000000006064820152608401610745565b603580547fffffffffffffffffffffffffffffffffffffffffffffffffffffffffffffff001690556040513381527f5db9ee0a495bf2e6ff9c91a7834c1ba4fdd244a5e8aa4e537bd38aeae4b073aa906020015b60405180910390a1565b60355460ff1615610aae5760405162461bcd60e51b815260206004820152601660248201527f4f7074696d69736d506f7274616c3a20706175736564000000000000000000006044820152606401610745565b3073ffffffffffffffffffffffffffffffffffffffff16856040015173ffffffffffffffffffffffffffffffffffffffff1603610b535760405162461bcd60e51b815260206004820152603f60248201527f4f7074696d69736d506f7274616c3a20796f752063616e6e6f742073656e642060448201527f6d6573736167657320746f2074686520706f7274616c20636f6e7472616374006064820152608401610745565b6040517fa25ae557000000000000000000000000000000000000000000000000000000008152600481018590526000907f000000000000000000000000000000000000000000000000000000000000000073ffffffffffffffffffffffffffffffffffffffff169063a25ae55790602401606060405180830381865afa158015610be1573d6000803e3d6000fd5b505050506040513d601f19601f82011682018060405250810190610c059190614ce5565b519050610c1f610c1a36869003860186614d4a565b6120c9565b8114610c935760405162461bcd60e51b815260206004820152602960248201527f4f7074696d69736d506f7274616c3a20696e76616c6964206f7574707574207260448201527f6f6f742070726f6f6600000000000000000000000000000000000000000000006064820152608401610745565b6000610c9e87612125565b6000818152603460209081526040918290208251606081018452815481526001909101546fffffffffffffffffffffffffffffffff8082169383018490527001000000000000000000000000000000009091041692810192909252919250901580610dd05750805160408083015190517fa25ae5570000000000000000000000000000000000000000000000000000000081526fffffffffffffffffffffffffffffffff90911660048201527f000000000000000000000000000000000000000000000000000000000000000073ffffffffffffffffffffffffffffffffffffffff169063a25ae55790602401606060405180830381865afa158015610da8573d6000803e3d6000fd5b505050506040513d601f19601f82011682018060405250810190610dcc9190614ce5565b5114155b610e425760405162461bcd60e51b815260206004820152603760248201527f4f7074696d69736d506f7274616c3a207769746864726177616c20686173682060448201527f68617320616c7265616479206265656e2070726f76656e0000000000000000006064820152608401610745565b6040805160208101849052600091810182905260600160408051601f1981840301815282825280516020918201209083018190529250610ecf910160408051601f19818403018152828201909152600182527f0100000000000000000000000000000000000000000000000000000000000000602083015290610ec5888a614db0565b8a60400135612155565b610f415760405162461bcd60e51b815260206004820152603260248201527f4f7074696d69736d506f7274616c3a20696e76616c696420776974686472617760448201527f616c20696e636c7573696f6e2070726f6f6600000000000000000000000000006064820152608401610745565b604080516060810182528581526fffffffffffffffffffffffffffffffff42811660208084019182528c831684860190815260008981526034835286812095518655925190518416700100000000000000000000000000000000029316929092176001909301929092558b830151908c0151925173ffffffffffffffffffffffffffffffffffffffff918216939091169186917f67a6208cfcc0801d50f6cbe764733f4fddf66ac0b04442061a8a8c0cb6b63f629190a4505050505050505050565b3373ffffffffffffffffffffffffffffffffffffffff7f000000000000000000000000000000000000000000000000000000000000000016146110ae5760405162461bcd60e51b815260206004820152603860248201527f4f61737973506f7274616c3a206f6e6c7920677561726469616e2063616e207360448201527f65742061206e6577206d6573736167652072656c6179657200000000000000006064820152608401610745565b60645473ffffffffffffffffffffffffffffffffffffffff908116908216036111195760405162461bcd60e51b815260206004820152601860248201527f4f61737973506f7274616c3a20616c72656164792073657400000000000000006044820152606401610745565b606480547fffffffffffffffffffffffff00000000000000000000000000000000000000001673ffffffffffffffffffffffffffffffffffffffff83169081179091556040517ffce056bb1203f3a49718c0c063cdde76b64ede7be48768dcf101ca2fc1358cfe90600090a250565b6040517fa25ae557000000000000000000000000000000000000000000000000000000008152600481018290526000906112599073ffffffffffffffffffffffffffffffffffffffff7f0000000000000000000000000000000000000000000000000000000000000000169063a25ae55790602401606060405180830381865afa15801561121a573d6000803e3d6000fd5b505050506040513d601f19601f8201168201806040525081019061123e9190614ce5565b602001516fffffffffffffffffffffffffffffffff16612179565b92915050565b3373ffffffffffffffffffffffffffffffffffffffff7f0000000000000000000000000000000000000000000000000000000000000000161461130a5760405162461bcd60e51b815260206004820152602760248201527f4f7074696d69736d506f7274616c3a206f6e6c7920677561726469616e20636160448201527f6e207061757365000000000000000000000000000000000000000000000000006064820152608401610745565b603580547fffffffffffffffffffffffffffffffffffffffffffffffffffffffffffffff001660011790556040513381527f62e78cea01bee320cd4e420270b5ea74000d11b0c9f74754ebdbfc544b05a25890602001610a51565b60355460ff16156113b85760405162461bcd60e51b815260206004820152601660248201527f4f7074696d69736d506f7274616c3a20706175736564000000000000000000006044820152606401610745565b60325473ffffffffffffffffffffffffffffffffffffffff1661dead146114475760405162461bcd60e51b815260206004820152603f60248201527f4f7074696d69736d506f7274616c3a2063616e206f6e6c79207472696767657260448201527f206f6e65207769746864726177616c20706572207472616e73616374696f6e006064820152608401610745565b600061145282612125565b60008181526034602090815260408083208151606081018352815481526001909101546fffffffffffffffffffffffffffffffff808216948301859052700100000000000000000000000000000000909104169181019190915292935090036115235760405162461bcd60e51b815260206004820152603260248201527f4f7074696d69736d506f7274616c3a207769746864726177616c20686173206e60448201527f6f74206265656e2070726f76656e2079657400000000000000000000000000006064820152608401610745565b7f000000000000000000000000000000000000000000000000000000000000000073ffffffffffffffffffffffffffffffffffffffff1663887862726040518163ffffffff1660e01b8152600401602060405180830381865afa15801561158e573d6000803e3d6000fd5b505050506040513d601f19601f820116820180604052508101906115b29190614e34565b81602001516fffffffffffffffffffffffffffffffff1610156116635760405162461bcd60e51b815260206004820152604b60248201527f4f7074696d69736d506f7274616c3a207769746864726177616c2074696d657360448201527f74616d70206c657373207468616e204c32204f7261636c65207374617274696e60648201527f672074696d657374616d70000000000000000000000000000000000000000000608482015260a401610745565b61168281602001516fffffffffffffffffffffffffffffffff16612179565b61171a5760405162461bcd60e51b815260206004820152604560248201527f4f7074696d69736d506f7274616c3a2070726f76656e2077697468647261776160448201527f6c2066696e616c697a6174696f6e20706572696f6420686173206e6f7420656c60648201527f6170736564000000000000000000000000000000000000000000000000000000608482015260a401610745565b60408181015190517fa25ae5570000000000000000000000000000000000000000000000000000000081526fffffffffffffffffffffffffffffffff90911660048201526000907f000000000000000000000000000000000000000000000000000000000000000073ffffffffffffffffffffffffffffffffffffffff169063a25ae55790602401606060405180830381865afa1580156117bf573d6000803e3d6000fd5b505050506040513d601f19601f820116820180604052508101906117e39190614ce5565b82518151919250146118835760405162461bcd60e51b815260206004820152604960248201527f4f7074696d69736d506f7274616c3a206f757470757420726f6f742070726f7660448201527f656e206973206e6f74207468652073616d652061732063757272656e74206f7560648201527f7470757420726f6f740000000000000000000000000000000000000000000000608482015260a401610745565b6118a281602001516fffffffffffffffffffffffffffffffff16612179565b61193a5760405162461bcd60e51b815260206004820152604360248201527f4f7074696d69736d506f7274616c3a206f75747075742070726f706f73616c2060448201527f66696e616c697a6174696f6e20706572696f6420686173206e6f7420656c617060648201527f7365640000000000000000000000000000000000000000000000000000000000608482015260a401610745565b60008381526033602052604090205460ff16156119bf5760405162461bcd60e51b815260206004820152603560248201527f4f7074696d69736d506f7274616c3a207769746864726177616c20686173206160448201527f6c7265616479206265656e2066696e616c697a656400000000000000000000006064820152608401610745565b600083815260336020908152604080832080547fffffffffffffffffffffffffffffffffffffffffffffffffffffffffffffff00166001179055908601516032805473ffffffffffffffffffffffffffffffffffffffff9092167fffffffffffffffffffffffff00000000000000000000000000000000000000009092169190911790558501516080860151606087015160a0880151611a6193929190612280565b603280547fffffffffffffffffffffffff00000000000000000000000000000000000000001661dead17905560405190915084907fdb5c7652857aa163daadd670e116628fb42e869d8ac4251ef8971d9e5727df1b90611ac690841515815260200190565b60405180910390a280158015611adc5750326001145b15611b4f5760405162461bcd60e51b815260206004820152602160248201527f4f7074696d69736d506f7274616c3a207769746864726177616c206661696c6560448201527f64000000000000000000000000000000000000000000000000000000000000006064820152608401610745565b5050505050565b6000611b63826010614e4d565b61125990615208614e7d565b611b7881611bc8565b50565b606480547fffffffffffffffffffffffff00000000000000000000000000000000000000001673ffffffffffffffffffffffffffffffffffffffff8316179055611bc482611b6f565b5050565b600054610100900460ff1615808015611be85750600054600160ff909116105b80611c025750303b158015611c02575060005460ff166001145b611c745760405162461bcd60e51b815260206004820152602e60248201527f496e697469616c697a61626c653a20636f6e747261637420697320616c72656160448201527f647920696e697469616c697a65640000000000000000000000000000000000006064820152608401610745565b600080547fffffffffffffffffffffffffffffffffffffffffffffffffffffffffffffff001660011790558015611cd257600080547fffffffffffffffffffffffffffffffffffffffffffffffffffffffffffff00ff166101001790555b603280547fffffffffffffffffffffffff00000000000000000000000000000000000000001661dead179055603580548315157fffffffffffffffffffffffffffffffffffffffffffffffffffffffffffffff00909116179055611d346122de565b8015611bc457600080547fffffffffffffffffffffffffffffffffffffffffffffffffffffffffffff00ff169055604051600181527f7f26b83ff96e1f2b6a682f133852f6798a09c465da95921460cefb38474024989060200160405180910390a15050565b73ffffffffffffffffffffffffffffffffffffffff163b151590565b600154600090611dec907801000000000000000000000000000000000000000000000000900467ffffffffffffffff1643614ea9565b90506000611df86123a7565b90506000816020015160ff16826000015163ffffffff16611e199190614eef565b90508215611f5057600154600090611e50908390700100000000000000000000000000000000900467ffffffffffffffff16614f57565b90506000836040015160ff1683611e679190614fcb565b600154611e879084906fffffffffffffffffffffffffffffffff16614fcb565b611e919190614eef565b600154909150600090611ee290611ebb9084906fffffffffffffffffffffffffffffffff16615087565b866060015163ffffffff168760a001516fffffffffffffffffffffffffffffffff1661246d565b90506001861115611f1157611f0e611ebb82876040015160ff1660018a611f099190614ea9565b61248c565b90505b6fffffffffffffffffffffffffffffffff16780100000000000000000000000000000000000000000000000067ffffffffffffffff4316021760015550505b60018054869190601090611f83908490700100000000000000000000000000000000900467ffffffffffffffff16614e7d565b92506101000a81548167ffffffffffffffff021916908367ffffffffffffffff160217905550816000015163ffffffff16600160000160109054906101000a900467ffffffffffffffff1667ffffffffffffffff16131561204c5760405162461bcd60e51b815260206004820152603e60248201527f5265736f757263654d65746572696e673a2063616e6e6f7420627579206d6f7260448201527f6520676173207468616e20617661696c61626c6520676173206c696d697400006064820152608401610745565b600154600090612078906fffffffffffffffffffffffffffffffff1667ffffffffffffffff88166150fb565b9050600061208a48633b9aca006124e1565b6120949083615138565b905060005a6120a39088614ea9565b9050808211156120bf576120bf6120ba8284614ea9565b6124f8565b5050505050505050565b60008160000151826020015183604001518460600151604051602001612108949392919093845260208401929092526040830152606082015260800190565b604051602081830303815290604052805190602001209050919050565b80516020808301516040808501516060860151608087015160a0880151935160009761210897909695910161514c565b60008061216186612526565b905061216f81868686612558565b9695505050505050565b60645460009073ffffffffffffffffffffffffffffffffffffffff16158015906121ba575060645473ffffffffffffffffffffffffffffffffffffffff1633145b156122775760007f000000000000000000000000000000000000000000000000000000000000000073ffffffffffffffffffffffffffffffffffffffff1663b3bd5cf56040518163ffffffff1660e01b8152600401602060405180830381865afa15801561222c573d6000803e3d6000fd5b505050506040513d601f19601f8201168201806040525081019061225091906151a3565b6fffffffffffffffffffffffffffffffff169050828111156122755750600192915050565b505b61125982612588565b600080600061229086600061262b565b9050806122c6576308c379a06000526020805278185361666543616c6c3a204e6f7420656e6f756768206761736058526064601cfd5b600080855160208701888b5af1979650505050505050565b600054610100900460ff1661235b5760405162461bcd60e51b815260206004820152602b60248201527f496e697469616c697a61626c653a20636f6e7472616374206973206e6f74206960448201527f6e697469616c697a696e670000000000000000000000000000000000000000006064820152608401610745565b60408051606081018252633b9aca00808252600060208301524367ffffffffffffffff169190920181905278010000000000000000000000000000000000000000000000000217600155565b6040805160c081018252600080825260208201819052918101829052606081018290526080810182905260a08101919091527f000000000000000000000000000000000000000000000000000000000000000073ffffffffffffffffffffffffffffffffffffffff1663cc731b026040518163ffffffff1660e01b815260040160c060405180830381865afa158015612444573d6000803e3d6000fd5b505050506040513d601f19601f8201168201806040525081019061246891906151e3565b905090565b600061248261247c8585612649565b83612659565b90505b9392505050565b6000670de0b6b3a76400006124cd6124a48583614eef565b6124b690670de0b6b3a7640000614f57565b6124c885670de0b6b3a7640000614fcb565b612668565b6124d79086614fcb565b6124829190614eef565b6000818310156124f15781612485565b5090919050565b6000805a90505b825a61250b9083614ea9565b10156125215761251a82614c8d565b91506124ff565b505050565b6060818051906020012060405160200161254291815260200190565b6040516020818303038152906040529050919050565b600061257f84612569878686612699565b8051602091820120825192909101919091201490565b95945050505050565b60007f000000000000000000000000000000000000000000000000000000000000000073ffffffffffffffffffffffffffffffffffffffff1663f4daa2916040518163ffffffff1660e01b8152600401602060405180830381865afa1580156125f5573d6000803e3d6000fd5b505050506040513d601f19601f820116820180604052508101906126199190614e34565b6126239083615282565b421192915050565b600080603f83619c4001026040850201603f5a021015949350505050565b6000818312156124f15781612485565b60008183126124f15781612485565b6000612485670de0b6b3a76400008361268086612fab565b61268a9190614fcb565b6126949190614eef565b6131d5565b606060008451116126ec5760405162461bcd60e51b815260206004820152601560248201527f4d65726b6c65547269653a20656d707479206b657900000000000000000000006044820152606401610745565b60006126f7846133fa565b90506000612704866134e6565b905060008460405160200161271b91815260200190565b60405160208183030381529060405290506000805b8451811015612f3c57600085828151811061274d5761274d614be5565b6020026020010151905084518311156127ce5760405162461bcd60e51b815260206004820152602e60248201527f4d65726b6c65547269653a206b657920696e646578206578636565647320746f60448201527f74616c206b6579206c656e6774680000000000000000000000000000000000006064820152608401610745565b8260000361286d578051805160209182012060405161281c926127f692910190815260200190565b604051602081830303815290604052858051602091820120825192909101919091201490565b6128685760405162461bcd60e51b815260206004820152601d60248201527f4d65726b6c65547269653a20696e76616c696420726f6f7420686173680000006044820152606401610745565b612990565b8051516020116129095780518051602091820120604051612897926127f692910190815260200190565b6128685760405162461bcd60e51b815260206004820152602760248201527f4d65726b6c65547269653a20696e76616c6964206c6172676520696e7465726e60448201527f616c2068617368000000000000000000000000000000000000000000000000006064820152608401610745565b8051845160208087019190912082519190920120146129905760405162461bcd60e51b815260206004820152602660248201527f4d65726b6c65547269653a20696e76616c696420696e7465726e616c206e6f6460448201527f65206861736800000000000000000000000000000000000000000000000000006064820152608401610745565b61299c60106001615282565b81602001515103612b445784518303612adc576129d681602001516010815181106129c9576129c9614be5565b6020026020010151613549565b96506000875111612a4f5760405162461bcd60e51b815260206004820152603b60248201527f4d65726b6c65547269653a2076616c7565206c656e677468206d75737420626560448201527f2067726561746572207468616e207a65726f20286272616e63682900000000006064820152608401610745565b60018651612a5d9190614ea9565b8214612ad15760405162461bcd60e51b815260206004820152603a60248201527f4d65726b6c65547269653a2076616c7565206e6f6465206d757374206265206c60448201527f617374206e6f646520696e2070726f6f6620286272616e6368290000000000006064820152608401610745565b505050505050612485565b6000858481518110612af057612af0614be5565b602001015160f81c60f81b60f81c9050600082602001518260ff1681518110612b1b57612b1b614be5565b60200260200101519050612b2e81613675565b9550612b3b600186615282565b94505050612f29565b600281602001515103612ebb576000612b5c8261369a565b9050600081600081518110612b7357612b73614be5565b016020015160f81c90506000612b8a60028361529a565b612b959060026152bc565b90506000612ba6848360ff166136be565b90506000612bb48a896136be565b90506000612bc283836136f4565b905080835114612c3a5760405162461bcd60e51b815260206004820152603a60248201527f4d65726b6c65547269653a20706174682072656d61696e646572206d7573742060448201527f736861726520616c6c206e6962626c65732077697468206b65790000000000006064820152608401610745565b60ff851660021480612c4f575060ff85166003145b15612df05780825114612cca5760405162461bcd60e51b815260206004820152603d60248201527f4d65726b6c65547269653a206b65792072656d61696e646572206d757374206260448201527f65206964656e746963616c20746f20706174682072656d61696e6465720000006064820152608401610745565b612ce487602001516001815181106129c9576129c9614be5565b9c5060008d5111612d5d5760405162461bcd60e51b815260206004820152603960248201527f4d65726b6c65547269653a2076616c7565206c656e677468206d75737420626560448201527f2067726561746572207468616e207a65726f20286c65616629000000000000006064820152608401610745565b60018c51612d6b9190614ea9565b8814612ddf5760405162461bcd60e51b815260206004820152603860248201527f4d65726b6c65547269653a2076616c7565206e6f6465206d757374206265206c60448201527f617374206e6f646520696e2070726f6f6620286c6561662900000000000000006064820152608401610745565b505050505050505050505050612485565b60ff85161580612e03575060ff85166001145b15612e4257612e2f8760200151600181518110612e2257612e22614be5565b6020026020010151613675565b9950612e3b818a615282565b9850612eb0565b60405162461bcd60e51b815260206004820152603260248201527f4d65726b6c65547269653a2072656365697665642061206e6f6465207769746860448201527f20616e20756e6b6e6f776e2070726566697800000000000000000000000000006064820152608401610745565b505050505050612f29565b60405162461bcd60e51b815260206004820152602860248201527f4d65726b6c65547269653a20726563656976656420616e20756e70617273656160448201527f626c65206e6f64650000000000000000000000000000000000000000000000006064820152608401610745565b5080612f3481614c8d565b915050612730565b5060405162461bcd60e51b815260206004820152602560248201527f4d65726b6c65547269653a2072616e206f7574206f662070726f6f6620656c6560448201527f6d656e74730000000000000000000000000000000000000000000000000000006064820152608401610745565b6000808213612ffc5760405162461bcd60e51b815260206004820152600960248201527f554e444546494e454400000000000000000000000000000000000000000000006044820152606401610745565b60006060613009846137a8565b03609f8181039490941b90931c6c465772b2bbbb5f824b15207a3081018102606090811d6d0388eaa27412d5aca026815d636e018202811d6d0df99ac502031bf953eff472fdcc018202811d6d13cdffb29d51d99322bdff5f2211018202811d6d0a0f742023def783a307a986912e018202811d6d01920d8043ca89b5239253284e42018202811d6c0b7a86d7375468fac667a0a527016c29508e458543d8aa4df2abee7883018302821d6d0139601a2efabe717e604cbb4894018302821d6d02247f7a7b6594320649aa03aba1018302821d7fffffffffffffffffffffffffffffffffffffff73c0c716a594e00d54e3c4cbc9018302821d7ffffffffffffffffffffffffffffffffffffffdc7b88c420e53a9890533129f6f01830290911d7fffffffffffffffffffffffffffffffffffffff465fda27eb4d63ded474e5f832019091027ffffffffffffffff5f6af8f7b3396644f18e157960000000000000000000000000105711340daa0d5f769dba1915cef59f0815a5506027d0267a36c0c95b3975ab3ee5b203a7614a3f75373f047d803ae7b6687f2b393909302929092017d57115e47018c7177eebf7cd370a3356a1b7863008a5ae8028c72b88642840160ae1d92915050565b60007ffffffffffffffffffffffffffffffffffffffffffffffffdb731c958f34d94c1821361320657506000919050565b680755bf798b4a1bf1e5821261325e5760405162461bcd60e51b815260206004820152600c60248201527f4558505f4f564552464c4f5700000000000000000000000000000000000000006044820152606401610745565b6503782dace9d9604e83901b059150600060606bb17217f7d1cf79abc9e3b39884821b056b80000000000000000000000001901d6bb17217f7d1cf79abc9e3b39881029093037fffffffffffffffffffffffffffffffffffffffdbf3ccf1604d263450f02a550481018102606090811d6d0277594991cfc85f6e2461837cd9018202811d7fffffffffffffffffffffffffffffffffffffe5adedaa1cb095af9e4da10e363c018202811d6db1bbb201f443cf962f1a1d3db4a5018202811d7ffffffffffffffffffffffffffffffffffffd38dc772608b0ae56cce01296c0eb018202811d6e05180bb14799ab47a8a8cb2a527d57016d02d16720577bd19bf614176fe9ea6c10fe68e7fd37d0007b713f765084018402831d9081019084017ffffffffffffffffffffffffffffffffffffffe2c69812cf03b0763fd454a8f7e010290911d6e0587f503bb6ea29d25fcb7401964500190910279d835ebba824c98fb31b83b2ca45c000000000000000000000000010574029d9dc38563c32e5c2f6dc192ee70ef65f9978af30260c3939093039290921c92915050565b80516060908067ffffffffffffffff8111156134185761341861474d565b60405190808252806020026020018201604052801561345d57816020015b60408051808201909152606080825260208201528152602001906001900390816134365790505b50915060005b818110156134df57604051806040016040528085838151811061348857613488614be5565b602002602001015181526020016134b78684815181106134aa576134aa614be5565b6020026020010151613864565b8152508382815181106134cc576134cc614be5565b6020908102919091010152600101613463565b5050919050565b606080604051905082518060011b603f8101601f1916830160405280835250602084016020830160005b8381101561353e578060011b82018184015160001a8060041c8253600f811660018301535050600101613510565b509295945050505050565b6060600080600061355985613877565b919450925090506000816001811115613574576135746152df565b146135e75760405162461bcd60e51b815260206004820152603960248201527f524c505265616465723a206465636f646564206974656d207479706520666f7260448201527f206279746573206973206e6f7420612064617461206974656d000000000000006064820152608401610745565b6135f18284615282565b8551146136665760405162461bcd60e51b815260206004820152603460248201527f524c505265616465723a2062797465732076616c756520636f6e7461696e732060448201527f616e20696e76616c69642072656d61696e6465720000000000000000000000006064820152608401610745565b61257f856020015184846141ac565b606060208260000151106136915761368c82613549565b611259565b61125982614240565b60606112596136b983602001516000815181106129c9576129c9614be5565b6134e6565b6060825182106136dd5750604080516020810190915260008152611259565b61248583838486516136ef9190614ea9565b614256565b600080825184511061370757825161370a565b83515b90505b8082108015613791575082828151811061372957613729614be5565b602001015160f81c60f81b7effffffffffffffffffffffffffffffffffffffffffffffffffffffffffffff191684838151811061376857613768614be5565b01602001517fff0000000000000000000000000000000000000000000000000000000000000016145b156137a15781600101915061370d565b5092915050565b60008082116137f95760405162461bcd60e51b815260206004820152600960248201527f554e444546494e454400000000000000000000000000000000000000000000006044820152606401610745565b5060016fffffffffffffffffffffffffffffffff821160071b82811c67ffffffffffffffff1060061b1782811c63ffffffff1060051b1782811c61ffff1060041b1782811c60ff10600390811b90911783811c600f1060021b1783811c909110821b1791821c111790565b6060611259613872836143c2565b614491565b60008060008084600001511161391b5760405162461bcd60e51b815260206004820152604a60248201527f524c505265616465723a206c656e677468206f6620616e20524c50206974656d60448201527f206d7573742062652067726561746572207468616e207a65726f20746f20626560648201527f206465636f6461626c6500000000000000000000000000000000000000000000608482015260a401610745565b6020840151805160001a607f81116139405760006001600094509450945050506141a5565b60b78111613b1a576000613955608083614ea9565b9050808760000151116139f65760405162461bcd60e51b815260206004820152604e60248201527f524c505265616465723a206c656e677468206f6620636f6e74656e74206d757360448201527f742062652067726561746572207468616e20737472696e67206c656e6774682060648201527f2873686f727420737472696e6729000000000000000000000000000000000000608482015260a401610745565b6001838101517fff00000000000000000000000000000000000000000000000000000000000000169082141580613a6f57507f80000000000000000000000000000000000000000000000000000000000000007fff00000000000000000000000000000000000000000000000000000000000000821610155b613b075760405162461bcd60e51b815260206004820152604d60248201527f524c505265616465723a20696e76616c6964207072656669782c2073696e676c60448201527f652062797465203c203078383020617265206e6f74207072656669786564202860648201527f73686f727420737472696e672900000000000000000000000000000000000000608482015260a401610745565b50600195509350600092506141a5915050565b60bf8111613e00576000613b2f60b783614ea9565b905080876000015111613bd05760405162461bcd60e51b815260206004820152605160248201527f524c505265616465723a206c656e677468206f6620636f6e74656e74206d757360448201527f74206265203e207468616e206c656e677468206f6620737472696e67206c656e60648201527f67746820286c6f6e6720737472696e6729000000000000000000000000000000608482015260a401610745565b60018301517fff00000000000000000000000000000000000000000000000000000000000000166000819003613c945760405162461bcd60e51b815260206004820152604a60248201527f524c505265616465723a206c656e677468206f6620636f6e74656e74206d757360448201527f74206e6f74206861766520616e79206c656164696e67207a65726f7320286c6f60648201527f6e6720737472696e672900000000000000000000000000000000000000000000608482015260a401610745565b600184015160088302610100031c60378111613d3e5760405162461bcd60e51b815260206004820152604860248201527f524c505265616465723a206c656e677468206f6620636f6e74656e74206d757360448201527f742062652067726561746572207468616e20353520627974657320286c6f6e6760648201527f20737472696e6729000000000000000000000000000000000000000000000000608482015260a401610745565b613d488184615282565b895111613de35760405162461bcd60e51b815260206004820152604c60248201527f524c505265616465723a206c656e677468206f6620636f6e74656e74206d757360448201527f742062652067726561746572207468616e20746f74616c206c656e677468202860648201527f6c6f6e6720737472696e67290000000000000000000000000000000000000000608482015260a401610745565b613dee836001615282565b97509550600094506141a59350505050565b60f78111613ec7576000613e1560c083614ea9565b905080876000015111613eb65760405162461bcd60e51b815260206004820152604a60248201527f524c505265616465723a206c656e677468206f6620636f6e74656e74206d757360448201527f742062652067726561746572207468616e206c697374206c656e67746820287360648201527f686f7274206c6973742900000000000000000000000000000000000000000000608482015260a401610745565b6001955093508492506141a5915050565b6000613ed460f783614ea9565b905080876000015111613f755760405162461bcd60e51b815260206004820152604d60248201527f524c505265616465723a206c656e677468206f6620636f6e74656e74206d757360448201527f74206265203e207468616e206c656e677468206f66206c697374206c656e677460648201527f6820286c6f6e67206c6973742900000000000000000000000000000000000000608482015260a401610745565b60018301517fff000000000000000000000000000000000000000000000000000000000000001660008190036140395760405162461bcd60e51b815260206004820152604860248201527f524c505265616465723a206c656e677468206f6620636f6e74656e74206d757360448201527f74206e6f74206861766520616e79206c656164696e67207a65726f7320286c6f60648201527f6e67206c69737429000000000000000000000000000000000000000000000000608482015260a401610745565b600184015160088302610100031c603781116140e35760405162461bcd60e51b815260206004820152604660248201527f524c505265616465723a206c656e677468206f6620636f6e74656e74206d757360448201527f742062652067726561746572207468616e20353520627974657320286c6f6e6760648201527f206c697374290000000000000000000000000000000000000000000000000000608482015260a401610745565b6140ed8184615282565b8951116141885760405162461bcd60e51b815260206004820152604a60248201527f524c505265616465723a206c656e677468206f6620636f6e74656e74206d757360448201527f742062652067726561746572207468616e20746f74616c206c656e677468202860648201527f6c6f6e67206c6973742900000000000000000000000000000000000000000000608482015260a401610745565b614193836001615282565b97509550600194506141a59350505050565b9193909250565b60608167ffffffffffffffff8111156141c7576141c761474d565b6040519080825280601f01601f1916602001820160405280156141f1576020820181803683370190505b50905081156124855760006142068486615282565b90506020820160005b8481101561422757828101518282015260200161420f565b84811115614236576000858301525b5050509392505050565b60606112598260200151600084600001516141ac565b60608182601f0110156142ab5760405162461bcd60e51b815260206004820152600e60248201527f736c6963655f6f766572666c6f770000000000000000000000000000000000006044820152606401610745565b8282840110156142fd5760405162461bcd60e51b815260206004820152600e60248201527f736c6963655f6f766572666c6f770000000000000000000000000000000000006044820152606401610745565b818301845110156143505760405162461bcd60e51b815260206004820152601160248201527f736c6963655f6f75744f66426f756e64730000000000000000000000000000006044820152606401610745565b60608215801561436f57604051915060008252602082016040526143b9565b6040519150601f8416801560200281840101858101878315602002848b0101015b818310156143a8578051835260209283019201614390565b5050858452601f01601f1916604052505b50949350505050565b604080518082019091526000808252602082015260008251116144735760405162461bcd60e51b815260206004820152604a60248201527f524c505265616465723a206c656e677468206f6620616e20524c50206974656d60448201527f206d7573742062652067726561746572207468616e207a65726f20746f20626560648201527f206465636f6461626c6500000000000000000000000000000000000000000000608482015260a401610745565b50604080518082019091528151815260209182019181019190915290565b606060008060006144a185613877565b9194509250905060018160018111156144bc576144bc6152df565b1461452f5760405162461bcd60e51b815260206004820152603860248201527f524c505265616465723a206465636f646564206974656d207479706520666f7260448201527f206c697374206973206e6f742061206c697374206974656d00000000000000006064820152608401610745565b845161453b8385615282565b146145ae5760405162461bcd60e51b815260206004820152603260248201527f524c505265616465723a206c697374206974656d2068617320616e20696e766160448201527f6c696420646174612072656d61696e64657200000000000000000000000000006064820152608401610745565b604080516020808252610420820190925290816020015b60408051808201909152600080825260208201528152602001906001900390816145c55790505093506000835b86518110156146b3576000806146386040518060400160405280858c6000015161461c9190614ea9565b8152602001858c602001516146319190615282565b9052613877565b5091509150604051806040016040528083836146549190615282565b8152602001848b602001516146699190615282565b81525088858151811061467e5761467e614be5565b6020908102919091010152614694600185615282565b93506146a08183615282565b6146aa9084615282565b925050506145f2565b50845250919392505050565b60008083601f8401126146d157600080fd5b50813567ffffffffffffffff8111156146e957600080fd5b6020830191508360208260051b850101111561470457600080fd5b9250929050565b6000806020838503121561471e57600080fd5b823567ffffffffffffffff81111561473557600080fd5b614741858286016146bf565b90969095509350505050565b7f4e487b7100000000000000000000000000000000000000000000000000000000600052604160045260246000fd5b604051601f8201601f1916810167ffffffffffffffff811182821017156147a5576147a561474d565b604052919050565b803573ffffffffffffffffffffffffffffffffffffffff811681146147d157600080fd5b919050565b600082601f8301126147e757600080fd5b813567ffffffffffffffff8111156148015761480161474d565b6148146020601f19601f8401160161477c565b81815284602083860101111561482957600080fd5b816020850160208301376000918101602001919091529392505050565b600060c0828403121561485857600080fd5b60405160c0810167ffffffffffffffff828210818311171561487c5761487c61474d565b8160405282935084358352614893602086016147ad565b60208401526148a4604086016147ad565b6040840152606085013560608401526080850135608084015260a08501359150808211156148d157600080fd5b506148de858286016147d6565b60a0830152505092915050565b600080600080600085870360e081121561490457600080fd5b863567ffffffffffffffff8082111561491c57600080fd5b6149288a838b01614846565b97506020890135965060807fffffffffffffffffffffffffffffffffffffffffffffffffffffffffffffffc08401121561496157600080fd5b60408901955060c089013592508083111561497b57600080fd5b5050614989888289016146bf565b969995985093965092949392505050565b60005b838110156149b557818101518382015260200161499d565b8381111561094c5750506000910152565b600081518084526149de81602086016020860161499a565b601f01601f19169290920160200192915050565b60208152600061248560208301846149c6565b600060208284031215614a1757600080fd5b612485826147ad565b600060208284031215614a3257600080fd5b5035919050565b600060208284031215614a4b57600080fd5b813567ffffffffffffffff811115614a6257600080fd5b614a6e84828501614846565b949350505050565b803567ffffffffffffffff811681146147d157600080fd5b600060208284031215614aa057600080fd5b61248582614a76565b803580151581146147d157600080fd5b600060208284031215614acb57600080fd5b61248582614aa9565b600080600080600060a08688031215614aec57600080fd5b614af5866147ad565b945060208601359350614b0a60408701614a76565b9250614b1860608701614aa9565b9150608086013567ffffffffffffffff811115614b3457600080fd5b614b40888289016147d6565b9150509295509295909350565b60008060408385031215614b6057600080fd5b614b6983614aa9565b9150614b77602084016147ad565b90509250929050565b8581528460208201527fffffffffffffffff0000000000000000000000000000000000000000000000008460c01b16604082015282151560f81b604882015260008251614bd481604985016020870161499a565b919091016049019695505050505050565b7f4e487b7100000000000000000000000000000000000000000000000000000000600052603260045260246000fd5b600082357fffffffffffffffffffffffffffffffffffffffffffffffffffffffffffffff41833603018112614c4857600080fd5b9190910192915050565b60006112593683614846565b7f4e487b7100000000000000000000000000000000000000000000000000000000600052601160045260246000fd5b60007fffffffffffffffffffffffffffffffffffffffffffffffffffffffffffffffff8203614cbe57614cbe614c5e565b5060010190565b80516fffffffffffffffffffffffffffffffff811681146147d157600080fd5b600060608284031215614cf757600080fd5b6040516060810181811067ffffffffffffffff82111715614d1a57614d1a61474d565b60405282518152614d2d60208401614cc5565b6020820152614d3e60408401614cc5565b60408201529392505050565b600060808284031215614d5c57600080fd5b6040516080810181811067ffffffffffffffff82111715614d7f57614d7f61474d565b8060405250823581526020830135602082015260408301356040820152606083013560608201528091505092915050565b600067ffffffffffffffff80841115614dcb57614dcb61474d565b8360051b6020614ddc81830161477c565b868152918501918181019036841115614df457600080fd5b865b84811015614e2857803586811115614e0e5760008081fd5b614e1a36828b016147d6565b845250918301918301614df6565b50979650505050505050565b600060208284031215614e4657600080fd5b5051919050565b600067ffffffffffffffff80831681851681830481118215151615614e7457614e74614c5e565b02949350505050565b600067ffffffffffffffff808316818516808303821115614ea057614ea0614c5e565b01949350505050565b600082821015614ebb57614ebb614c5e565b500390565b7f4e487b7100000000000000000000000000000000000000000000000000000000600052601260045260246000fd5b600082614efe57614efe614ec0565b7fffffffffffffffffffffffffffffffffffffffffffffffffffffffffffffffff83147f800000000000000000000000000000000000000000000000000000000000000083141615614f5257614f52614c5e565b500590565b6000808312837f800000000000000000000000000000000000000000000000000000000000000001831281151615614f9157614f91614c5e565b837f7fffffffffffffffffffffffffffffffffffffffffffffffffffffffffffffff018313811615614fc557614fc5614c5e565b50500390565b60007f7fffffffffffffffffffffffffffffffffffffffffffffffffffffffffffffff60008413600084138583048511828216161561500c5761500c614c5e565b7f8000000000000000000000000000000000000000000000000000000000000000600087128682058812818416161561504757615047614c5e565b6000871292508782058712848416161561506357615063614c5e565b8785058712818416161561507957615079614c5e565b505050929093029392505050565b6000808212827f7fffffffffffffffffffffffffffffffffffffffffffffffffffffffffffffff038413811516156150c1576150c1614c5e565b827f80000000000000000000000000000000000000000000000000000000000000000384128116156150f5576150f5614c5e565b50500190565b6000817fffffffffffffffffffffffffffffffffffffffffffffffffffffffffffffffff048311821515161561513357615133614c5e565b500290565b60008261514757615147614ec0565b500490565b868152600073ffffffffffffffffffffffffffffffffffffffff808816602084015280871660408401525084606083015283608083015260c060a083015261519760c08301846149c6565b98975050505050505050565b6000602082840312156151b557600080fd5b61248582614cc5565b805163ffffffff811681146147d157600080fd5b805160ff811681146147d157600080fd5b600060c082840312156151f557600080fd5b60405160c0810181811067ffffffffffffffff821117156152185761521861474d565b604052615224836151be565b8152615232602084016151d2565b6020820152615243604084016151d2565b6040820152615254606084016151be565b6060820152615265608084016151be565b608082015261527660a08401614cc5565b60a08201529392505050565b6000821982111561529557615295614c5e565b500190565b600060ff8316806152ad576152ad614ec0565b8060ff84160691505092915050565b600060ff821660ff8416808210156152d6576152d6614c5e565b90039392505050565b7f4e487b7100000000000000000000000000000000000000000000000000000000600052602160045260246000fdfea164736f6c634300080f000a","linkReferences":{}},"methodIdentifiers":{"GUARDIAN()":"724c184c","L2_ORACLE()":"001c2ff6","SYSTEM_CONFIG()":"f0498750","depositTransaction(address,uint256,uint64,bool,bytes)":"e9e05c42","donateETH()":"8b4c40b0","finalizeWithdrawalTransaction((uint256,address,address,uint256,uint256,bytes))":"8c3152e9","finalizeWithdrawalTransactions((uint256,address,address,uint256,uint256,bytes)[])":"057bbee1","finalizedWithdrawals(bytes32)":"a14238e7","guardian()":"452a9320","initialize(bool)":"d53a822f","initializeWithRelayer(bool,address)":"fc69f6e8","isOutputFinalized(uint256)":"6dbffb78","l2Oracle()":"9b5f694a","l2Sender()":"9bf62d82","messageRelayer()":"4f3b457e","minimumGasLimit(uint64)":"a35d99df","params()":"cff0ab96","pause()":"8456cb59","paused()":"5c975abb","proveWithdrawalTransaction((uint256,address,address,uint256,uint256,bytes),uint256,(bytes32,bytes32,bytes32,bytes32),bytes[])":"4870496f","provenWithdrawals(bytes32)":"e965084c","setMessageRelayer(address)":"6cfd26e9","systemConfig()":"33d7e2bd","unpause()":"3f4ba83a","version()":"54fd4d50"},"storageLayout":{"storage":[{"astId":45286,"contract":"src/oasys/L1/messaging/OasysPortal.sol:OasysPortal","label":"_initialized","offset":0,"slot":"0","type":"t_uint8"},{"astId":45289,"contract":"src/oasys/L1/messaging/OasysPortal.sol:OasysPortal","label":"_initializing","offset":1,"slot":"0","type":"t_bool"},{"astId":53177,"contract":"src/oasys/L1/messaging/OasysPortal.sol:OasysPortal","label":"params","offset":0,"slot":"1","type":"t_struct(ResourceParams)53160_storage"},{"astId":53182,"contract":"src/oasys/L1/messaging/OasysPortal.sol:OasysPortal","label":"__gap","offset":0,"slot":"2","type":"t_array(t_uint256)48_storage"},{"astId":52237,"contract":"src/oasys/L1/messaging/OasysPortal.sol:OasysPortal","label":"l2Sender","offset":0,"slot":"50","type":"t_address"},{"astId":52242,"contract":"src/oasys/L1/messaging/OasysPortal.sol:OasysPortal","label":"finalizedWithdrawals","offset":0,"slot":"51","type":"t_mapping(t_bytes32,t_bool)"},{"astId":52248,"contract":"src/oasys/L1/messaging/OasysPortal.sol:OasysPortal","label":"provenWithdrawals","offset":0,"slot":"52","type":"t_mapping(t_bytes32,t_struct(ProvenWithdrawal)52215_storage)"},{"astId":52251,"contract":"src/oasys/L1/messaging/OasysPortal.sol:OasysPortal","label":"paused","offset":0,"slot":"53","type":"t_bool"},{"astId":52256,"contract":"src/oasys/L1/messaging/OasysPortal.sol:OasysPortal","label":"__gap","offset":0,"slot":"54","type":"t_array(t_uint256)46_storage"},{"astId":61964,"contract":"src/oasys/L1/messaging/OasysPortal.sol:OasysPortal","label":"messageRelayer","offset":0,"slot":"100","type":"t_address"}],"types":{"t_address":{"encoding":"inplace","label":"address","numberOfBytes":"20"},"t_array(t_uint256)46_storage":{"encoding":"inplace","label":"uint256[46]","numberOfBytes":"1472","base":"t_uint256"},"t_array(t_uint256)48_storage":{"encoding":"inplace","label":"uint256[48]","numberOfBytes":"1536","base":"t_uint256"},"t_bool":{"encoding":"inplace","label":"bool","numberOfBytes":"1"},"t_bytes32":{"encoding":"inplace","label":"bytes32","numberOfBytes":"32"},"t_mapping(t_bytes32,t_bool)":{"encoding":"mapping","key":"t_bytes32","label":"mapping(bytes32 => bool)","numberOfBytes":"32","value":"t_bool"},"t_mapping(t_bytes32,t_struct(ProvenWithdrawal)52215_storage)":{"encoding":"mapping","key":"t_bytes32","label":"mapping(bytes32 => struct OptimismPortal.ProvenWithdrawal)","numberOfBytes":"32","value":"t_struct(ProvenWithdrawal)52215_storage"},"t_struct(ProvenWithdrawal)52215_storage":{"encoding":"inplace","label":"struct OptimismPortal.ProvenWithdrawal","numberOfBytes":"64","members":[{"astId":52210,"contract":"src/oasys/L1/messaging/OasysPortal.sol:OasysPortal","label":"outputRoot","offset":0,"slot":"0","type":"t_bytes32"},{"astId":52212,"contract":"src/oasys/L1/messaging/OasysPortal.sol:OasysPortal","label":"timestamp","offset":0,"slot":"1","type":"t_uint128"},{"astId":52214,"contract":"src/oasys/L1/messaging/OasysPortal.sol:OasysPortal","label":"l2OutputIndex","offset":16,"slot":"1","type":"t_uint128"}]},"t_struct(ResourceParams)53160_storage":{"encoding":"inplace","label":"struct ResourceMetering.ResourceParams","numberOfBytes":"32","members":[{"astId":53155,"contract":"src/oasys/L1/messaging/OasysPortal.sol:OasysPortal","label":"prevBaseFee","offset":0,"slot":"0","type":"t_uint128"},{"astId":53157,"contract":"src/oasys/L1/messaging/OasysPortal.sol:OasysPortal","label":"prevBoughtGas","offset":16,"slot":"0","type":"t_uint64"},{"astId":53159,"contract":"src/oasys/L1/messaging/OasysPortal.sol:OasysPortal","label":"prevBlockNum","offset":24,"slot":"0","type":"t_uint64"}]},"t_uint128":{"encoding":"inplace","label":"uint128","numberOfBytes":"16"},"t_uint256":{"encoding":"inplace","label":"uint256","numberOfBytes":"32"},"t_uint64":{"encoding":"inplace","label":"uint64","numberOfBytes":"8"},"t_uint8":{"encoding":"inplace","label":"uint8","numberOfBytes":"1"}}},"userdoc":{"version":1,"kind":"user","methods":{"GUARDIAN()":{"notice":"Address that has the ability to pause and unpause withdrawals. This will be removed in the         future, use `guardian` instead."},"L2_ORACLE()":{"notice":"Address of the L2OutputOracle contract. This will be removed in the         future, use `l2Oracle` instead."},"SYSTEM_CONFIG()":{"notice":"Address of the SystemConfig contract. This will be removed in the         future, use `systemConfig` instead."},"depositTransaction(address,uint256,uint64,bool,bytes)":{"notice":"Accepts deposits of ETH and data, and emits a TransactionDeposited event for use in         deriving deposit transactions. Note that if a deposit is made by a contract, its         address will be aliased when retrieved using `tx.origin` or `msg.sender`. Consider         using the CrossDomainMessenger contracts for a simpler developer experience."},"donateETH()":{"notice":"Accepts ETH value without triggering a deposit to L2.         This function mainly exists for the sake of the migration between the legacy         Optimism system and Bedrock."},"finalizeWithdrawalTransaction((uint256,address,address,uint256,uint256,bytes))":{"notice":"Finalizes a withdrawal transaction."},"finalizeWithdrawalTransactions((uint256,address,address,uint256,uint256,bytes)[])":{"notice":"Batch finalizes withdrawal transactions.         This method is necessary because it is not possible to check         whether msg.sender is a message relayer via the Multicall contract."},"finalizedWithdrawals(bytes32)":{"notice":"A list of withdrawal hashes which have been successfully finalized."},"guardian()":{"notice":"Getter function for the address of the L2OutputOracle on this chain.Address of the L2OutputOracle on this chain."},"initialize(bool)":{"notice":"Initializer."},"initializeWithRelayer(bool,address)":{"notice":"Initalize with setting messager relayer"},"isOutputFinalized(uint256)":{"notice":"Determine if a given output is finalized.         Reverts if the call to L2_ORACLE.getL2Output reverts.         Returns a boolean otherwise."},"l2Oracle()":{"notice":"Getter function for the address of the L2OutputOracle on this chain.Address of the L2OutputOracle on this chain."},"l2Sender()":{"notice":"Address of the L2 account which initiated a withdrawal in this transaction.         If the of this variable is the default L2 sender address, then we are NOT inside of         a call to finalizeWithdrawalTransaction."},"messageRelayer()":{"notice":"Message relayer to allowed immediate withdraw."},"minimumGasLimit(uint64)":{"notice":"Computes the minimum gas limit for a deposit.         The minimum gas limit linearly increases based on the size of the calldata.         This is to prevent users from creating L2 resource usage without paying for it.         This function can be used when interacting with the portal to ensure forwards         compatibility."},"params()":{"notice":"EIP-1559 style gas parameters."},"pause()":{"notice":"Pauses withdrawals."},"paused()":{"notice":"Determines if cross domain messaging is paused.         When set to true, withdrawals are paused.         This may be removed in the future."},"proveWithdrawalTransaction((uint256,address,address,uint256,uint256,bytes),uint256,(bytes32,bytes32,bytes32,bytes32),bytes[])":{"notice":"Proves a withdrawal transaction."},"provenWithdrawals(bytes32)":{"notice":"A mapping of withdrawal hashes to `ProvenWithdrawal` data."},"setMessageRelayer(address)":{"notice":"Set a new message relayer address.         If the zero address is set, no immediate relay of withdrawal messages."},"systemConfig()":{"notice":"Getter function for the address of the SystemConfig on this chain.Address of the SystemConfig on this chain."},"unpause()":{"notice":"Unpauses withdrawals."},"version()":{"notice":"Semantic version."}},"events":{"MessageRelayerSet(address)":{"notice":"Emitted when a new message relayer is set."},"Paused(address)":{"notice":"Emitted when the pause is triggered."},"TransactionDeposited(address,address,uint256,bytes)":{"notice":"Emitted when a transaction is deposited from L1 to L2.         The parameters of this event are read by the rollup node and used to derive deposit         transactions on L2."},"Unpaused(address)":{"notice":"Emitted when the pause is lifted."},"WithdrawalFinalized(bytes32,bool)":{"notice":"Emitted when a withdrawal transaction is finalized."},"WithdrawalProven(bytes32,address,address)":{"notice":"Emitted when a withdrawal transaction is proven."}},"notice":"The OasysPortal is a contract that extends         OptimismPortal to enable fast messaging from L2 to L1."},"devdoc":{"version":1,"kind":"dev","methods":{"depositTransaction(address,uint256,uint64,bool,bytes)":{"params":{"_data":"Data to trigger the recipient with.","_gasLimit":"Amount of L2 gas to purchase by burning gas on L1.","_isCreation":"Whether or not the transaction is a contract creation.","_to":"Target address on L2.","_value":"ETH value to send to the recipient."}},"finalizeWithdrawalTransaction((uint256,address,address,uint256,uint256,bytes))":{"params":{"_tx":"Withdrawal transaction to finalize."}},"isOutputFinalized(uint256)":{"params":{"_l2OutputIndex":"Index of the L2 output to check."},"returns":{"_0":"Whether or not the output is finalized."}},"minimumGasLimit(uint64)":{"params":{"_byteCount":"Number of bytes in the calldata."},"returns":{"_0":"The minimum gas limit for a deposit."}},"proveWithdrawalTransaction((uint256,address,address,uint256,uint256,bytes),uint256,(bytes32,bytes32,bytes32,bytes32),bytes[])":{"params":{"_l2OutputIndex":"L2 output index to prove against.","_outputRootProof":"Inclusion proof of the L2ToL1MessagePasser contract's storage root.","_tx":"Withdrawal transaction to finalize.","_withdrawalProof":"Inclusion proof of the withdrawal in L2ToL1MessagePasser contract."}}},"events":{"MessageRelayerSet(address)":{"params":{"relayer":"The address of the new message relayer."}}}},"id":110}