{"abi":[{"type":"constructor","inputs":[{"name":"_submissionInterval","type":"uint256","internalType":"uint256"},{"name":"_l2BlockTime","type":"uint256","internalType":"uint256"},{"name":"_startingBlockNumber","type":"uint256","internalType":"uint256"},{"name":"_startingTimestamp","type":"uint256","internalType":"uint256"},{"name":"_proposer","type":"address","internalType":"address"},{"name":"_challenger","type":"address","internalType":"address"},{"name":"_finalizationPeriodSeconds","type":"uint256","internalType":"uint256"},{"name":"_verifier","type":"address","internalType":"contract IOasysL2OutputOracleVerifier"}],"stateMutability":"nonpayable"},{"type":"function","name":"CHALLENGER","inputs":[],"outputs":[{"name":"","type":"address","internalType":"address"}],"stateMutability":"view"},{"type":"function","name":"FINALIZATION_PERIOD_SECONDS","inputs":[],"outputs":[{"name":"","type":"uint256","internalType":"uint256"}],"stateMutability":"view"},{"type":"function","name":"L2_BLOCK_TIME","inputs":[],"outputs":[{"name":"","type":"uint256","internalType":"uint256"}],"stateMutability":"view"},{"type":"function","name":"PROPOSER","inputs":[],"outputs":[{"name":"","type":"address","internalType":"address"}],"stateMutability":"view"},{"type":"function","name":"SUBMISSION_INTERVAL","inputs":[],"outputs":[{"name":"","type":"uint256","internalType":"uint256"}],"stateMutability":"view"},{"type":"function","name":"VERIFIER","inputs":[],"outputs":[{"name":"","type":"address","internalType":"contract IOasysL2OutputOracleVerifier"}],"stateMutability":"view"},{"type":"function","name":"challenger","inputs":[],"outputs":[{"name":"","type":"address","internalType":"address"}],"stateMutability":"view"},{"type":"function","name":"computeL2Timestamp","inputs":[{"name":"_l2BlockNumber","type":"uint256","internalType":"uint256"}],"outputs":[{"name":"","type":"uint256","internalType":"uint256"}],"stateMutability":"view"},{"type":"function","name":"deleteL2Outputs","inputs":[{"name":"l2OutputIndex","type":"uint256","internalType":"uint256"}],"outputs":[],"stateMutability":"nonpayable"},{"type":"function","name":"failVerification","inputs":[{"name":"l2OutputIndex","type":"uint256","internalType":"uint256"},{"name":"l2Output","type":"tuple","internalType":"struct Types.OutputProposal","components":[{"name":"outputRoot","type":"bytes32","internalType":"bytes32"},{"name":"timestamp","type":"uint128","internalType":"uint128"},{"name":"l2BlockNumber","type":"uint128","internalType":"uint128"}]}],"outputs":[],"stateMutability":"nonpayable"},{"type":"function","name":"finalizationPeriodSeconds","inputs":[],"outputs":[{"name":"","type":"uint256","internalType":"uint256"}],"stateMutability":"view"},{"type":"function","name":"getL2Output","inputs":[{"name":"_l2OutputIndex","type":"uint256","internalType":"uint256"}],"outputs":[{"name":"","type":"tuple","internalType":"struct Types.OutputProposal","components":[{"name":"outputRoot","type":"bytes32","internalType":"bytes32"},{"name":"timestamp","type":"uint128","internalType":"uint128"},{"name":"l2BlockNumber","type":"uint128","internalType":"uint128"}]}],"stateMutability":"view"},{"type":"function","name":"getL2OutputAfter","inputs":[{"name":"_l2BlockNumber","type":"uint256","internalType":"uint256"}],"outputs":[{"name":"","type":"tuple","internalType":"struct Types.OutputProposal","components":[{"name":"outputRoot","type":"bytes32","internalType":"bytes32"},{"name":"timestamp","type":"uint128","internalType":"uint128"},{"name":"l2BlockNumber","type":"uint128","internalType":"uint128"}]}],"stateMutability":"view"},{"type":"function","name":"getL2OutputIndexAfter","inputs":[{"name":"_l2BlockNumber","type":"uint256","internalType":"uint256"}],"outputs":[{"name":"","type":"uint256","internalType":"uint256"}],"stateMutability":"view"},{"type":"function","name":"initialize","inputs":[{"name":"_startingBlockNumber","type":"uint256","internalType":"uint256"},{"name":"_startingTimestamp","type":"uint256","internalType":"uint256"}],"outputs":[],"stateMutability":"nonpayable"},{"type":"function","name":"isOutputFinalized","inputs":[{"name":"l2OutputIndex","type":"uint256","internalType":"uint256"}],"outputs":[{"name":"","type":"bool","internalType":"bool"}],"stateMutability":"view"},{"type":"function","name":"l2BlockTime","inputs":[],"outputs":[{"name":"","type":"uint256","internalType":"uint256"}],"stateMutability":"view"},{"type":"function","name":"l2OracleVerifier","inputs":[],"outputs":[{"name":"","type":"address","internalType":"contract IOasysL2OutputOracleVerifier"}],"stateMutability":"view"},{"type":"function","name":"latestBlockNumber","inputs":[],"outputs":[{"name":"","type":"uint256","internalType":"uint256"}],"stateMutability":"view"},{"type":"function","name":"latestOutputIndex","inputs":[],"outputs":[{"name":"","type":"uint256","internalType":"uint256"}],"stateMutability":"view"},{"type":"function","name":"nextBlockNumber","inputs":[],"outputs":[{"name":"","type":"uint256","internalType":"uint256"}],"stateMutability":"view"},{"type":"function","name":"nextOutputIndex","inputs":[],"outputs":[{"name":"","type":"uint256","internalType":"uint256"}],"stateMutability":"view"},{"type":"function","name":"nextVerifyIndex","inputs":[],"outputs":[{"name":"","type":"uint256","internalType":"uint256"}],"stateMutability":"view"},{"type":"function","name":"proposeL2Output","inputs":[{"name":"_outputRoot","type":"bytes32","internalType":"bytes32"},{"name":"_l2BlockNumber","type":"uint256","internalType":"uint256"},{"name":"_l1BlockHash","type":"bytes32","internalType":"bytes32"},{"name":"_l1BlockNumber","type":"uint256","internalType":"uint256"}],"outputs":[],"stateMutability":"payable"},{"type":"function","name":"proposer","inputs":[],"outputs":[{"name":"","type":"address","internalType":"address"}],"stateMutability":"view"},{"type":"function","name":"startingBlockNumber","inputs":[],"outputs":[{"name":"","type":"uint256","internalType":"uint256"}],"stateMutability":"view"},{"type":"function","name":"startingTimestamp","inputs":[],"outputs":[{"name":"","type":"uint256","internalType":"uint256"}],"stateMutability":"view"},{"type":"function","name":"submissionInterval","inputs":[],"outputs":[{"name":"","type":"uint256","internalType":"uint256"}],"stateMutability":"view"},{"type":"function","name":"succeedVerification","inputs":[{"name":"l2OutputIndex","type":"uint256","internalType":"uint256"},{"name":"l2Output","type":"tuple","internalType":"struct Types.OutputProposal","components":[{"name":"outputRoot","type":"bytes32","internalType":"bytes32"},{"name":"timestamp","type":"uint128","internalType":"uint128"},{"name":"l2BlockNumber","type":"uint128","internalType":"uint128"}]}],"outputs":[],"stateMutability":"nonpayable"},{"type":"function","name":"verifiedL1Timestamp","inputs":[],"outputs":[{"name":"","type":"uint128","internalType":"uint128"}],"stateMutability":"view"},{"type":"function","name":"version","inputs":[],"outputs":[{"name":"","type":"string","internalType":"string"}],"stateMutability":"view"},{"type":"event","name":"Initialized","inputs":[{"name":"version","type":"uint8","indexed":false,"internalType":"uint8"}],"anonymous":false},{"type":"event","name":"OutputFailed","inputs":[{"name":"l2OutputIndex","type":"uint256","indexed":true,"internalType":"uint256"},{"name":"outputRoot","type":"bytes32","indexed":true,"internalType":"bytes32"},{"name":"l2BlockNumber","type":"uint128","indexed":true,"internalType":"uint128"}],"anonymous":false},{"type":"event","name":"OutputProposed","inputs":[{"name":"outputRoot","type":"bytes32","indexed":true,"internalType":"bytes32"},{"name":"l2OutputIndex","type":"uint256","indexed":true,"internalType":"uint256"},{"name":"l2BlockNumber","type":"uint256","indexed":true,"internalType":"uint256"},{"name":"l1Timestamp","type":"uint256","indexed":false,"internalType":"uint256"}],"anonymous":false},{"type":"event","name":"OutputVerified","inputs":[{"name":"l2OutputIndex","type":"uint256","indexed":true,"internalType":"uint256"},{"name":"outputRoot","type":"bytes32","indexed":true,"internalType":"bytes32"},{"name":"l2BlockNumber","type":"uint128","indexed":true,"internalType":"uint128"}],"anonymous":false},{"type":"event","name":"OutputsDeleted","inputs":[{"name":"prevNextOutputIndex","type":"uint256","indexed":true,"internalType":"uint256"},{"name":"newNextOutputIndex","type":"uint256","indexed":true,"internalType":"uint256"}],"anonymous":false}],"bytecode":{"object":"0x6101406040523480156200001257600080fd5b50604051620020c8380380620020c883398101604081905262000035916200037c565b8787878787878760008611620000b85760405162461bcd60e51b815260206004820152603460248201527f4c324f75747075744f7261636c653a204c3220626c6f636b2074696d65206d7560448201527f73742062652067726561746572207468616e203000000000000000000000000060648201526084015b60405180910390fd5b60008711620001305760405162461bcd60e51b815260206004820152603a60248201527f4c324f75747075744f7261636c653a207375626d697373696f6e20696e74657260448201527f76616c206d7573742062652067726561746572207468616e20300000000000006064820152608401620000af565b608087905260a08690526001600160a01b0380841660e052821660c0526101008190526200015f858562000183565b5050506001600160a01b039094166101205250620004019950505050505050505050565b6200019a82826200019e60201b620013bf1760201c565b5050565b600054610100900460ff1615808015620001bf5750600054600160ff909116105b80620001ef5750620001dc306200035460201b620015d81760201c565b158015620001ef575060005460ff166001145b620002545760405162461bcd60e51b815260206004820152602e60248201527f496e697469616c697a61626c653a20636f6e747261637420697320616c72656160448201526d191e481a5b9a5d1a585b1a5e995960921b6064820152608401620000af565b6000805460ff19166001179055801562000278576000805461ff0019166101001790555b42821115620002fe5760405162461bcd60e51b8152602060048201526044602482018190527f4c324f75747075744f7261636c653a207374617274696e67204c322074696d65908201527f7374616d70206d757374206265206c657373207468616e2063757272656e742060648201526374696d6560e01b608482015260a401620000af565b6002829055600183905580156200034f576000805461ff0019169055604051600181527f7f26b83ff96e1f2b6a682f133852f6798a09c465da95921460cefb38474024989060200160405180910390a15b505050565b6001600160a01b03163b151590565b6001600160a01b03811681146200037957600080fd5b50565b600080600080600080600080610100898b0312156200039a57600080fd5b885197506020890151965060408901519550606089015194506080890151620003c38162000363565b60a08a0151909450620003d68162000363565b60c08a015160e08b01519194509250620003f08162000363565b809150509295985092959890939650565b60805160a05160c05160e0516101005161012051611c1c620004ac600039600081816102350152818161035d015281816109b40152611188015260008181610601015281816106ff015261160a015260008181610564015281816105d00152610c190152600081816102d4015281816103d30152610b3c0152600081816101ee015281816104c2015261112c0152600081816102a3015281816106a901526113800152611c1c6000f3fe6080604052600436106101d75760003560e01c80638878627211610102578063ce5db8d611610095578063dcec334811610064578063dcec334814610685578063e1a41bcf1461069a578063e4a30116146106cd578063f4daa291146106ed57600080fd5b8063ce5db8d6146105f2578063cf8e5cf014610625578063d1de856c14610645578063d88234361461066557600080fd5b8063a25ae557116100d1578063a25ae557146104f9578063a8e4fb9014610555578063b3bd5cf514610588578063bffa7f0f146105be57600080fd5b8063887862721461047d57806389c44cbb1461049357806393991af3146104b35780639aaab648146104e657600080fd5b806369f16eec1161017a5780636dbffb78116101495780636dbffb78146103f557806370872aa5146104255780637f0064201461043b578063859c029d1461045b57600080fd5b806369f16eec146103815780636abcf563146103965780636b405db0146103ab5780636b4d98dd146103c157600080fd5b8063529933df116101b6578063529933df14610291578063534db0e2146102c557806354fd4d50146102f85780635a5a4d9e1461034e57600080fd5b80622134cc146101dc57806308c84e70146102235780634599c7881461027c575b600080fd5b3480156101e857600080fd5b506102107f000000000000000000000000000000000000000000000000000000000000000081565b6040519081526020015b60405180910390f35b34801561022f57600080fd5b506102577f000000000000000000000000000000000000000000000000000000000000000081565b60405173ffffffffffffffffffffffffffffffffffffffff909116815260200161021a565b34801561028857600080fd5b50610210610721565b34801561029d57600080fd5b506102107f000000000000000000000000000000000000000000000000000000000000000081565b3480156102d157600080fd5b507f0000000000000000000000000000000000000000000000000000000000000000610257565b34801561030457600080fd5b506103416040518060400160405280600581526020017f312e372e3000000000000000000000000000000000000000000000000000000081525081565b60405161021a9190611963565b34801561035a57600080fd5b507f0000000000000000000000000000000000000000000000000000000000000000610257565b34801561038d57600080fd5b50610210610794565b3480156103a257600080fd5b50600354610210565b3480156103b757600080fd5b5061021060325481565b3480156103cd57600080fd5b506102577f000000000000000000000000000000000000000000000000000000000000000081565b34801561040157600080fd5b506104156104103660046119d6565b6107a6565b604051901515815260200161021a565b34801561043157600080fd5b5061021060015481565b34801561044757600080fd5b506102106104563660046119d6565b6107b7565b34801561046757600080fd5b5061047b6104763660046119ef565b61099c565b005b34801561048957600080fd5b5061021060025481565b34801561049f57600080fd5b5061047b6104ae3660046119d6565b610b24565b3480156104bf57600080fd5b507f0000000000000000000000000000000000000000000000000000000000000000610210565b61047b6104f4366004611a45565b610c01565b34801561050557600080fd5b506105196105143660046119d6565b610ffe565b60408051825181526020808401516fffffffffffffffffffffffffffffffff90811691830191909152928201519092169082015260600161021a565b34801561056157600080fd5b507f0000000000000000000000000000000000000000000000000000000000000000610257565b34801561059457600080fd5b5061059d611092565b6040516fffffffffffffffffffffffffffffffff909116815260200161021a565b3480156105ca57600080fd5b506102577f000000000000000000000000000000000000000000000000000000000000000081565b3480156105fe57600080fd5b507f0000000000000000000000000000000000000000000000000000000000000000610210565b34801561063157600080fd5b506105196106403660046119d6565b6110f0565b34801561065157600080fd5b506102106106603660046119d6565b611128565b34801561067157600080fd5b5061047b6106803660046119ef565b611170565b34801561069157600080fd5b5061021061137c565b3480156106a657600080fd5b507f0000000000000000000000000000000000000000000000000000000000000000610210565b3480156106d957600080fd5b5061047b6106e8366004611a77565b6113b1565b3480156106f957600080fd5b506102107f000000000000000000000000000000000000000000000000000000000000000081565b6003546000901561078b576003805461073c90600190611ac8565b8154811061074c5761074c611adf565b600091825260209091206002909102016001015470010000000000000000000000000000000090046fffffffffffffffffffffffffffffffff16919050565b6001545b905090565b60035460009061078f90600190611ac8565b60006107b1826115f4565b92915050565b60006107c1610721565b8211156108615760405162461bcd60e51b815260206004820152604860248201527f4c324f75747075744f7261636c653a2063616e6e6f7420676574206f7574707560448201527f7420666f72206120626c6f636b207468617420686173206e6f74206265656e2060648201527f70726f706f736564000000000000000000000000000000000000000000000000608482015260a4015b60405180910390fd5b6003546108fc5760405162461bcd60e51b815260206004820152604660248201527f4c324f75747075744f7261636c653a2063616e6e6f7420676574206f7574707560448201527f74206173206e6f206f7574707574732068617665206265656e2070726f706f7360648201527f6564207965740000000000000000000000000000000000000000000000000000608482015260a401610858565b6003546000905b8082101561099557600060026109198385611b0e565b6109239190611b26565b9050846003828154811061093957610939611adf565b600091825260209091206002909102016001015470010000000000000000000000000000000090046fffffffffffffffffffffffffffffffff16101561098b57610984816001611b0e565b925061098f565b8091505b50610903565b5092915050565b3373ffffffffffffffffffffffffffffffffffffffff7f00000000000000000000000000000000000000000000000000000000000000001614610a475760405162461bcd60e51b815260206004820152602a60248201527f4f617379734c324f75747075744f7261636c653a2063616c6c6572206973206e60448201527f6f7420616c6c6f776564000000000000000000000000000000000000000000006064820152608401610858565b610a518282611682565b610ac35760405162461bcd60e51b815260206004820152602860248201527f4f617379734c324f75747075744f7261636c653a20696e76616c6964206f757460448201527f70757420726f6f740000000000000000000000000000000000000000000000006064820152608401610858565b610acc826117e1565b610adc6060820160408301611b61565b6fffffffffffffffffffffffffffffffff168160000135837f39dab377091f907ce5cdb2ef4eeea3961f83ca13a3b6daff133ec7f99a3ec34360405160405180910390a45050565b3373ffffffffffffffffffffffffffffffffffffffff7f00000000000000000000000000000000000000000000000000000000000000001614610bf55760405162461bcd60e51b815260206004820152604360248201527f4f617379734c324f75747075744f7261636c653a206f6e6c792074686520636860448201527f616c6c656e67657220616464726573732063616e2064656c657465206f75747060648201527f7574730000000000000000000000000000000000000000000000000000000000608482015260a401610858565b610bfe816117e1565b50565b3373ffffffffffffffffffffffffffffffffffffffff7f00000000000000000000000000000000000000000000000000000000000000001614610cd25760405162461bcd60e51b815260206004820152604160248201527f4c324f75747075744f7261636c653a206f6e6c79207468652070726f706f736560448201527f7220616464726573732063616e2070726f706f7365206e6577206f757470757460648201527f7300000000000000000000000000000000000000000000000000000000000000608482015260a401610858565b610cda61137c565b8314610d745760405162461bcd60e51b815260206004820152604860248201527f4c324f75747075744f7261636c653a20626c6f636b206e756d626572206d757360448201527f7420626520657175616c20746f206e65787420657870656374656420626c6f6360648201527f6b206e756d626572000000000000000000000000000000000000000000000000608482015260a401610858565b42610d7e84611128565b10610df15760405162461bcd60e51b815260206004820152603660248201527f4c324f75747075744f7261636c653a2063616e6e6f742070726f706f7365204c60448201527f32206f757470757420696e2074686520667574757265000000000000000000006064820152608401610858565b83610e645760405162461bcd60e51b815260206004820152603a60248201527f4c324f75747075744f7261636c653a204c32206f75747075742070726f706f7360448201527f616c2063616e6e6f7420626520746865207a65726f20686173680000000000006064820152608401610858565b8115610f065781814014610f065760405162461bcd60e51b815260206004820152604960248201527f4c324f75747075744f7261636c653a20626c6f636b206861736820646f65732060448201527f6e6f74206d61746368207468652068617368206174207468652065787065637460648201527f6564206865696768740000000000000000000000000000000000000000000000608482015260a401610858565b82610f1060035490565b857fa7aaf2512769da4e444e3de247be2564225c2e7a8f74cfe528e46e17d24868e242604051610f4291815260200190565b60405180910390a45050604080516060810182529283526fffffffffffffffffffffffffffffffff4281166020850190815292811691840191825260038054600181018255600091909152935160029094027fc2575a0e9e593c00f959f8c92f12db2869c3395a3b0502d05e2516446f71f85b810194909455915190518216700100000000000000000000000000000000029116177fc2575a0e9e593c00f959f8c92f12db2869c3395a3b0502d05e2516446f71f85c90910155565b60408051606081018252600080825260208201819052918101919091526003828154811061102e5761102e611adf565b600091825260209182902060408051606081018252600290930290910180548352600101546fffffffffffffffffffffffffffffffff8082169484019490945270010000000000000000000000000000000090049092169181019190915292915050565b60006032546000146110ea57600360016032546110af9190611ac8565b815481106110bf576110bf611adf565b60009182526020909120600160029092020101546fffffffffffffffffffffffffffffffff16905090565b50600090565b60408051606081018252600080825260208201819052918101919091526003611118836107b7565b8154811061102e5761102e611adf565b60007f0000000000000000000000000000000000000000000000000000000000000000600154836111599190611ac8565b6111639190611b9a565b6002546107b19190611b0e565b3373ffffffffffffffffffffffffffffffffffffffff7f0000000000000000000000000000000000000000000000000000000000000000161461121b5760405162461bcd60e51b815260206004820152602a60248201527f4f617379734c324f75747075744f7261636c653a2063616c6c6572206973206e60448201527f6f7420616c6c6f776564000000000000000000000000000000000000000000006064820152608401610858565b6112258282611682565b6112975760405162461bcd60e51b815260206004820152602860248201527f4f617379734c324f75747075744f7261636c653a20696e76616c6964206f757460448201527f70757420726f6f740000000000000000000000000000000000000000000000006064820152608401610858565b603254821461130e5760405162461bcd60e51b815260206004820152602c60248201527f4f617379734c324f75747075744f7261636c653a20696e76616c6964204c322060448201527f6f757470757420696e64657800000000000000000000000000000000000000006064820152608401610858565b6032805490600061131e83611bd7565b9091555061133490506060820160408301611b61565b6fffffffffffffffffffffffffffffffff168160000135837f98beebb56f3d9f23ca4c2e85cac607b80e030b3ca74fcc7b38f98bdd5146ef6b60405160405180910390a45050565b60007f00000000000000000000000000000000000000000000000000000000000000006113a7610721565b61078f9190611b0e565b6113bb82826113bf565b5050565b600054610100900460ff16158080156113df5750600054600160ff909116105b806113f95750303b1580156113f9575060005460ff166001145b61146b5760405162461bcd60e51b815260206004820152602e60248201527f496e697469616c697a61626c653a20636f6e747261637420697320616c72656160448201527f647920696e697469616c697a65640000000000000000000000000000000000006064820152608401610858565b600080547fffffffffffffffffffffffffffffffffffffffffffffffffffffffffffffff0016600117905580156114c957600080547fffffffffffffffffffffffffffffffffffffffffffffffffffffffffffff00ff166101001790555b428211156115665760405162461bcd60e51b8152602060048201526044602482018190527f4c324f75747075744f7261636c653a207374617274696e67204c322074696d65908201527f7374616d70206d757374206265206c657373207468616e2063757272656e742060648201527f74696d6500000000000000000000000000000000000000000000000000000000608482015260a401610858565b6002829055600183905580156115d357600080547fffffffffffffffffffffffffffffffffffffffffffffffffffffffffffff00ff169055604051600181527f7f26b83ff96e1f2b6a682f133852f6798a09c465da95921460cefb38474024989060200160405180910390a15b505050565b73ffffffffffffffffffffffffffffffffffffffff163b151590565b600060325482101561160857506001919050565b7f00000000000000000000000000000000000000000000000000000000000000006003838154811061163c5761163c611adf565b600091825260209091206001600290920201015461166c906fffffffffffffffffffffffffffffffff1642611ac8565b111561167a57506001919050565b506000919050565b6000806003848154811061169857611698611adf565b6000918252602091829020604080516060808201835260029490940290920180548084526001909101546fffffffffffffffffffffffffffffffff808216858801527001000000000000000000000000000000008204908116858501528351968701929092527fffffffffffffffffffffffffffffffff00000000000000000000000000000000608091821b8116938701939093521b1660508401529250016040516020818303038152906040528051906020012083600001358460200160208101906117659190611b61565b6117756060870160408801611b61565b6040516020016117c193929190928352608091821b7fffffffffffffffffffffffffffffffff000000000000000000000000000000009081166020850152911b16603082015260400190565b604051602081830303815290604052805190602001201491505092915050565b600354811061187e5760405162461bcd60e51b815260206004820152604860248201527f4f617379734c324f75747075744f7261636c653a2063616e6e6f742064656c6560448201527f7465206f75747075747320616674657220746865206c6174657374206f75747060648201527f757420696e646578000000000000000000000000000000000000000000000000608482015260a401610858565b611887816115f4565b156119205760405162461bcd60e51b815260206004820152604b60248201527f4f617379734c324f75747075744f7261636c653a2063616e6e6f742064656c6560448201527f7465206f7574707574732074686174206861766520616c72656164792062656560648201527f6e2066696e616c697a6564000000000000000000000000000000000000000000608482015260a401610858565b600061192b60035490565b90508160035581817f4ee37ac2c786ec85e87592d3c5c8a1dd66f8496dda3f125d9ea8ca5f657629b660405160405180910390a35050565b600060208083528351808285015260005b8181101561199057858101830151858201604001528201611974565b818111156119a2576000604083870101525b50601f017fffffffffffffffffffffffffffffffffffffffffffffffffffffffffffffffe016929092016040019392505050565b6000602082840312156119e857600080fd5b5035919050565b6000808284036080811215611a0357600080fd5b8335925060607fffffffffffffffffffffffffffffffffffffffffffffffffffffffffffffffe082011215611a3757600080fd5b506020830190509250929050565b60008060008060808587031215611a5b57600080fd5b5050823594602084013594506040840135936060013592509050565b60008060408385031215611a8a57600080fd5b50508035926020909101359150565b7f4e487b7100000000000000000000000000000000000000000000000000000000600052601160045260246000fd5b600082821015611ada57611ada611a99565b500390565b7f4e487b7100000000000000000000000000000000000000000000000000000000600052603260045260246000fd5b60008219821115611b2157611b21611a99565b500190565b600082611b5c577f4e487b7100000000000000000000000000000000000000000000000000000000600052601260045260246000fd5b500490565b600060208284031215611b7357600080fd5b81356fffffffffffffffffffffffffffffffff81168114611b9357600080fd5b9392505050565b6000817fffffffffffffffffffffffffffffffffffffffffffffffffffffffffffffffff0483118215151615611bd257611bd2611a99565b500290565b60007fffffffffffffffffffffffffffffffffffffffffffffffffffffffffffffffff8203611c0857611c08611a99565b506001019056fea164736f6c634300080f000a","linkReferences":{}},"methodIdentifiers":{"CHALLENGER()":"6b4d98dd","FINALIZATION_PERIOD_SECONDS()":"f4daa291","L2_BLOCK_TIME()":"002134cc","PROPOSER()":"bffa7f0f","SUBMISSION_INTERVAL()":"529933df","VERIFIER()":"08c84e70","challenger()":"534db0e2","computeL2Timestamp(uint256)":"d1de856c","deleteL2Outputs(uint256)":"89c44cbb","failVerification(uint256,(bytes32,uint128,uint128))":"859c029d","finalizationPeriodSeconds()":"ce5db8d6","getL2Output(uint256)":"a25ae557","getL2OutputAfter(uint256)":"cf8e5cf0","getL2OutputIndexAfter(uint256)":"7f006420","initialize(uint256,uint256)":"e4a30116","isOutputFinalized(uint256)":"6dbffb78","l2BlockTime()":"93991af3","l2OracleVerifier()":"5a5a4d9e","latestBlockNumber()":"4599c788","latestOutputIndex()":"69f16eec","nextBlockNumber()":"dcec3348","nextOutputIndex()":"6abcf563","nextVerifyIndex()":"6b405db0","proposeL2Output(bytes32,uint256,bytes32,uint256)":"9aaab648","proposer()":"a8e4fb90","startingBlockNumber()":"70872aa5","startingTimestamp()":"88786272","submissionInterval()":"e1a41bcf","succeedVerification(uint256,(bytes32,uint128,uint128))":"d8823436","verifiedL1Timestamp()":"b3bd5cf5","version()":"54fd4d50"},"storageLayout":{"storage":[{"astId":41200,"contract":"src/oasys/L1/rollup/OasysL2OutputOracle.sol:OasysL2OutputOracle","label":"_initialized","offset":0,"slot":"0","type":"t_uint8"},{"astId":41203,"contract":"src/oasys/L1/rollup/OasysL2OutputOracle.sol:OasysL2OutputOracle","label":"_initializing","offset":1,"slot":"0","type":"t_bool"},{"astId":46702,"contract":"src/oasys/L1/rollup/OasysL2OutputOracle.sol:OasysL2OutputOracle","label":"startingBlockNumber","offset":0,"slot":"1","type":"t_uint256"},{"astId":46705,"contract":"src/oasys/L1/rollup/OasysL2OutputOracle.sol:OasysL2OutputOracle","label":"startingTimestamp","offset":0,"slot":"2","type":"t_uint256"},{"astId":46710,"contract":"src/oasys/L1/rollup/OasysL2OutputOracle.sol:OasysL2OutputOracle","label":"l2Outputs","offset":0,"slot":"3","type":"t_array(t_struct(OutputProposal)50703_storage)dyn_storage"},{"astId":46715,"contract":"src/oasys/L1/rollup/OasysL2OutputOracle.sol:OasysL2OutputOracle","label":"__gap","offset":0,"slot":"4","type":"t_array(t_uint256)46_storage"},{"astId":56441,"contract":"src/oasys/L1/rollup/OasysL2OutputOracle.sol:OasysL2OutputOracle","label":"nextVerifyIndex","offset":0,"slot":"50","type":"t_uint256"}],"types":{"t_array(t_struct(OutputProposal)50703_storage)dyn_storage":{"encoding":"dynamic_array","label":"struct Types.OutputProposal[]","numberOfBytes":"32","base":"t_struct(OutputProposal)50703_storage"},"t_array(t_uint256)46_storage":{"encoding":"inplace","label":"uint256[46]","numberOfBytes":"1472","base":"t_uint256"},"t_bool":{"encoding":"inplace","label":"bool","numberOfBytes":"1"},"t_bytes32":{"encoding":"inplace","label":"bytes32","numberOfBytes":"32"},"t_struct(OutputProposal)50703_storage":{"encoding":"inplace","label":"struct Types.OutputProposal","numberOfBytes":"64","members":[{"astId":50698,"contract":"src/oasys/L1/rollup/OasysL2OutputOracle.sol:OasysL2OutputOracle","label":"outputRoot","offset":0,"slot":"0","type":"t_bytes32"},{"astId":50700,"contract":"src/oasys/L1/rollup/OasysL2OutputOracle.sol:OasysL2OutputOracle","label":"timestamp","offset":0,"slot":"1","type":"t_uint128"},{"astId":50702,"contract":"src/oasys/L1/rollup/OasysL2OutputOracle.sol:OasysL2OutputOracle","label":"l2BlockNumber","offset":16,"slot":"1","type":"t_uint128"}]},"t_uint128":{"encoding":"inplace","label":"uint128","numberOfBytes":"16"},"t_uint256":{"encoding":"inplace","label":"uint256","numberOfBytes":"32"},"t_uint8":{"encoding":"inplace","label":"uint8","numberOfBytes":"1"}}},"userdoc":{"version":1,"kind":"user","methods":{"CHALLENGER()":{"notice":"The address of the challenger. Can be updated via upgrade. This will be removed in the         future, use `challenger` instead."},"FINALIZATION_PERIOD_SECONDS()":{"notice":"The minimum time (in seconds) that must elapse before a withdrawal can be finalized."},"L2_BLOCK_TIME()":{"notice":"The time between L2 blocks in seconds. Once set, this value MUST NOT be modified."},"PROPOSER()":{"notice":"The address of the proposer. Can be updated via upgrade.  This will be removed in the         future, use `proposer` instead."},"SUBMISSION_INTERVAL()":{"notice":"The interval in L2 blocks at which checkpoints must be submitted.         Although this is immutable, it can safely be modified by upgrading the         implementation contract.         Public getter is legacy and will be removed in the future. Use `submissionInterval`         instead."},"VERIFIER()":{"notice":"Address of the OasysL2OutputOracleVerifier contract.         This will be removed in the future, use `l2OracleVerifier` instead."},"challenger()":{"notice":"Getter for the challenger address."},"computeL2Timestamp(uint256)":{"notice":"Returns the L2 timestamp corresponding to a given L2 block number."},"deleteL2Outputs(uint256)":{"notice":"Deletes all output proposals after and including the proposal that corresponds to         the given output index. Only the challenger address can delete outputs."},"failVerification(uint256,(bytes32,uint128,uint128))":{"notice":"Method called by the OasysRollupVerifier after a verification failure."},"finalizationPeriodSeconds()":{"notice":"Getter for the FINALIZATION_PERIOD_SECONDS."},"getL2Output(uint256)":{"notice":"Returns an output by index. Needed to return a struct instead of a tuple."},"getL2OutputAfter(uint256)":{"notice":"Returns the L2 output proposal that checkpoints a given L2 block number.         Uses a binary search to find the first output greater than or equal to the given         block."},"getL2OutputIndexAfter(uint256)":{"notice":"Returns the index of the L2 output that checkpoints a given L2 block number.         Uses a binary search to find the first output greater than or equal to the given         block."},"initialize(uint256,uint256)":{"notice":"Initializer."},"isOutputFinalized(uint256)":{"notice":"Returns whether the specified L2Output has been finalized."},"l2BlockTime()":{"notice":"Getter for the L2_BLOCK_TIME."},"l2OracleVerifier()":{"notice":"Getter function for the address of the OasysL2OutputOracleVerifier on this chain.Address of the OasysL2OutputOracleVerifier on this chain."},"latestBlockNumber()":{"notice":"Returns the block number of the latest submitted L2 output proposal.         If no proposals been submitted yet then this function will return the starting         block number."},"latestOutputIndex()":{"notice":"Returns the number of outputs that have been proposed.         Will revert if no outputs have been proposed yet."},"nextBlockNumber()":{"notice":"Computes the block number of the next L2 block that needs to be checkpointed."},"nextOutputIndex()":{"notice":"Returns the index of the next output to be proposed."},"nextVerifyIndex()":{"notice":"Next L2Output index to verify."},"proposeL2Output(bytes32,uint256,bytes32,uint256)":{"notice":"Accepts an outputRoot and the timestamp of the corresponding L2 block.         The timestamp must be equal to the current value returned by `nextTimestamp()` in         order to be accepted. This function may only be called by the Proposer."},"proposer()":{"notice":"Getter for the PROPOSER address."},"startingBlockNumber()":{"notice":"The number of the first L2 block recorded in this contract."},"startingTimestamp()":{"notice":"The timestamp of the first L2 block recorded in this contract."},"submissionInterval()":{"notice":"Getter for the SUBMISSION_INTERVAL."},"succeedVerification(uint256,(bytes32,uint128,uint128))":{"notice":"Method called by the OasysRollupVerifier after a verification successful."},"verifiedL1Timestamp()":{"notice":"Return the verified block timestamp in L1."},"version()":{"notice":"Semantic version."}},"events":{"OutputFailed(uint256,bytes32,uint128)":{"notice":"Emitted when output is rejected."},"OutputProposed(bytes32,uint256,uint256,uint256)":{"notice":"Emitted when an output is proposed."},"OutputVerified(uint256,bytes32,uint128)":{"notice":"Emitted when an output is verified."},"OutputsDeleted(uint256,uint256)":{"notice":"Emitted when outputs are deleted."}},"notice":"The OasysL2OutputOracle is a contract that extends         L2OutputOracle to enable instant verification."},"devdoc":{"version":1,"kind":"dev","methods":{"computeL2Timestamp(uint256)":{"params":{"_l2BlockNumber":"The L2 block number of the target block."},"returns":{"_0":"L2 timestamp of the given block."}},"deleteL2Outputs(uint256)":{"params":{"_l2OutputIndex":"Index of the first L2 output to be deleted.                       All outputs after this output will also be deleted."}},"failVerification(uint256,(bytes32,uint128,uint128))":{"params":{"l2Output":"Target L2 Output.","l2OutputIndex":"Index of the target output."}},"getL2Output(uint256)":{"params":{"_l2OutputIndex":"Index of the output to return."},"returns":{"_0":"The output at the given index."}},"getL2OutputAfter(uint256)":{"params":{"_l2BlockNumber":"L2 block number to find a checkpoint for."},"returns":{"_0":"First checkpoint that commits to the given L2 block number."}},"getL2OutputIndexAfter(uint256)":{"params":{"_l2BlockNumber":"L2 block number to find a checkpoint for."},"returns":{"_0":"Index of the first checkpoint that commits to the given L2 block number."}},"initialize(uint256,uint256)":{"params":{"_startingBlockNumber":"Block number for the first recoded L2 block.","_startingTimestamp":"Timestamp for the first recoded L2 block."}},"isOutputFinalized(uint256)":{"params":{"l2OutputIndex":"Index of the target output."}},"latestBlockNumber()":{"returns":{"_0":"Latest submitted L2 block number."}},"latestOutputIndex()":{"returns":{"_0":"The number of outputs that have been proposed."}},"nextBlockNumber()":{"returns":{"_0":"Next L2 block number."}},"nextOutputIndex()":{"returns":{"_0":"The index of the next output to be proposed."}},"proposeL2Output(bytes32,uint256,bytes32,uint256)":{"params":{"_l1BlockHash":"A block hash which must be included in the current chain.","_l1BlockNumber":"The block number with the specified block hash.","_l2BlockNumber":"The L2 block number that resulted in _outputRoot.","_outputRoot":"The L2 output of the checkpoint block."}},"succeedVerification(uint256,(bytes32,uint128,uint128))":{"params":{"l2Output":"Target L2 Output.","l2OutputIndex":"Index of the target output."}}}},"id":99}