{"abi":[{"type":"constructor","inputs":[{"name":"_l2Oracle","type":"address","internalType":"contract L2OutputOracle"},{"name":"_guardian","type":"address","internalType":"address"},{"name":"_paused","type":"bool","internalType":"bool"},{"name":"_systemConfig","type":"address","internalType":"contract SystemConfig"}],"stateMutability":"nonpayable"},{"type":"receive","stateMutability":"payable"},{"type":"function","name":"GUARDIAN","inputs":[],"outputs":[{"name":"","type":"address","internalType":"address"}],"stateMutability":"view"},{"type":"function","name":"L2_ORACLE","inputs":[],"outputs":[{"name":"","type":"address","internalType":"contract L2OutputOracle"}],"stateMutability":"view"},{"type":"function","name":"SYSTEM_CONFIG","inputs":[],"outputs":[{"name":"","type":"address","internalType":"contract SystemConfig"}],"stateMutability":"view"},{"type":"function","name":"depositTransaction","inputs":[{"name":"_to","type":"address","internalType":"address"},{"name":"_value","type":"uint256","internalType":"uint256"},{"name":"_gasLimit","type":"uint64","internalType":"uint64"},{"name":"_isCreation","type":"bool","internalType":"bool"},{"name":"_data","type":"bytes","internalType":"bytes"}],"outputs":[],"stateMutability":"payable"},{"type":"function","name":"donateETH","inputs":[],"outputs":[],"stateMutability":"payable"},{"type":"function","name":"finalizeWithdrawalTransaction","inputs":[{"name":"_tx","type":"tuple","internalType":"struct Types.WithdrawalTransaction","components":[{"name":"nonce","type":"uint256","internalType":"uint256"},{"name":"sender","type":"address","internalType":"address"},{"name":"target","type":"address","internalType":"address"},{"name":"value","type":"uint256","internalType":"uint256"},{"name":"gasLimit","type":"uint256","internalType":"uint256"},{"name":"data","type":"bytes","internalType":"bytes"}]}],"outputs":[],"stateMutability":"nonpayable"},{"type":"function","name":"finalizeWithdrawalTransactions","inputs":[{"name":"_txs","type":"tuple[]","internalType":"struct Types.WithdrawalTransaction[]","components":[{"name":"nonce","type":"uint256","internalType":"uint256"},{"name":"sender","type":"address","internalType":"address"},{"name":"target","type":"address","internalType":"address"},{"name":"value","type":"uint256","internalType":"uint256"},{"name":"gasLimit","type":"uint256","internalType":"uint256"},{"name":"data","type":"bytes","internalType":"bytes"}]}],"outputs":[],"stateMutability":"nonpayable"},{"type":"function","name":"finalizedWithdrawals","inputs":[{"name":"","type":"bytes32","internalType":"bytes32"}],"outputs":[{"name":"","type":"bool","internalType":"bool"}],"stateMutability":"view"},{"type":"function","name":"guardian","inputs":[],"outputs":[{"name":"","type":"address","internalType":"address"}],"stateMutability":"view"},{"type":"function","name":"initialize","inputs":[{"name":"_paused","type":"bool","internalType":"bool"}],"outputs":[],"stateMutability":"nonpayable"},{"type":"function","name":"isOutputFinalized","inputs":[{"name":"_l2OutputIndex","type":"uint256","internalType":"uint256"}],"outputs":[{"name":"","type":"bool","internalType":"bool"}],"stateMutability":"view"},{"type":"function","name":"l2Oracle","inputs":[],"outputs":[{"name":"","type":"address","internalType":"contract L2OutputOracle"}],"stateMutability":"view"},{"type":"function","name":"l2Sender","inputs":[],"outputs":[{"name":"","type":"address","internalType":"address"}],"stateMutability":"view"},{"type":"function","name":"messageRelayer","inputs":[],"outputs":[{"name":"","type":"address","internalType":"address"}],"stateMutability":"view"},{"type":"function","name":"minimumGasLimit","inputs":[{"name":"_byteCount","type":"uint64","internalType":"uint64"}],"outputs":[{"name":"","type":"uint64","internalType":"uint64"}],"stateMutability":"pure"},{"type":"function","name":"params","inputs":[],"outputs":[{"name":"prevBaseFee","type":"uint128","internalType":"uint128"},{"name":"prevBoughtGas","type":"uint64","internalType":"uint64"},{"name":"prevBlockNum","type":"uint64","internalType":"uint64"}],"stateMutability":"view"},{"type":"function","name":"pause","inputs":[],"outputs":[],"stateMutability":"nonpayable"},{"type":"function","name":"paused","inputs":[],"outputs":[{"name":"","type":"bool","internalType":"bool"}],"stateMutability":"view"},{"type":"function","name":"proveWithdrawalTransaction","inputs":[{"name":"_tx","type":"tuple","internalType":"struct Types.WithdrawalTransaction","components":[{"name":"nonce","type":"uint256","internalType":"uint256"},{"name":"sender","type":"address","internalType":"address"},{"name":"target","type":"address","internalType":"address"},{"name":"value","type":"uint256","internalType":"uint256"},{"name":"gasLimit","type":"uint256","internalType":"uint256"},{"name":"data","type":"bytes","internalType":"bytes"}]},{"name":"_l2OutputIndex","type":"uint256","internalType":"uint256"},{"name":"_outputRootProof","type":"tuple","internalType":"struct Types.OutputRootProof","components":[{"name":"version","type":"bytes32","internalType":"bytes32"},{"name":"stateRoot","type":"bytes32","internalType":"bytes32"},{"name":"messagePasserStorageRoot","type":"bytes32","internalType":"bytes32"},{"name":"latestBlockhash","type":"bytes32","internalType":"bytes32"}]},{"name":"_withdrawalProof","type":"bytes[]","internalType":"bytes[]"}],"outputs":[],"stateMutability":"nonpayable"},{"type":"function","name":"provenWithdrawals","inputs":[{"name":"","type":"bytes32","internalType":"bytes32"}],"outputs":[{"name":"outputRoot","type":"bytes32","internalType":"bytes32"},{"name":"timestamp","type":"uint128","internalType":"uint128"},{"name":"l2OutputIndex","type":"uint128","internalType":"uint128"}],"stateMutability":"view"},{"type":"function","name":"setMessageRelayer","inputs":[{"name":"newRelayer","type":"address","internalType":"address"}],"outputs":[],"stateMutability":"nonpayable"},{"type":"function","name":"systemConfig","inputs":[],"outputs":[{"name":"","type":"address","internalType":"contract SystemConfig"}],"stateMutability":"view"},{"type":"function","name":"unpause","inputs":[],"outputs":[],"stateMutability":"nonpayable"},{"type":"function","name":"version","inputs":[],"outputs":[{"name":"","type":"string","internalType":"string"}],"stateMutability":"view"},{"type":"event","name":"Initialized","inputs":[{"name":"version","type":"uint8","indexed":false,"internalType":"uint8"}],"anonymous":false},{"type":"event","name":"MessageRelayerSet","inputs":[{"name":"relayer","type":"address","indexed":true,"internalType":"address"}],"anonymous":false},{"type":"event","name":"Paused","inputs":[{"name":"account","type":"address","indexed":false,"internalType":"address"}],"anonymous":false},{"type":"event","name":"TransactionDeposited","inputs":[{"name":"from","type":"address","indexed":true,"internalType":"address"},{"name":"to","type":"address","indexed":true,"internalType":"address"},{"name":"version","type":"uint256","indexed":true,"internalType":"uint256"},{"name":"opaqueData","type":"bytes","indexed":false,"internalType":"bytes"}],"anonymous":false},{"type":"event","name":"Unpaused","inputs":[{"name":"account","type":"address","indexed":false,"internalType":"address"}],"anonymous":false},{"type":"event","name":"WithdrawalFinalized","inputs":[{"name":"withdrawalHash","type":"bytes32","indexed":true,"internalType":"bytes32"},{"name":"success","type":"bool","indexed":false,"internalType":"bool"}],"anonymous":false},{"type":"event","name":"WithdrawalProven","inputs":[{"name":"withdrawalHash","type":"bytes32","indexed":true,"internalType":"bytes32"},{"name":"from","type":"address","indexed":true,"internalType":"address"},{"name":"to","type":"address","indexed":true,"internalType":"address"}],"anonymous":false}],"bytecode":{"object":"0x60e06040523480156200001157600080fd5b5060405162005611380380620056118339810160408190526200003491620002a2565b6001600160a01b0380851660805280841660c052811660a052838383836200005c826200006a565b50505050505050506200030e565b62000080816200008360201b62001b501760201c565b50565b600054610100900460ff1615808015620000a45750600054600160ff909116105b80620000d45750620000c130620001da60201b62001d231760201c565b158015620000d4575060005460ff166001145b6200013d5760405162461bcd60e51b815260206004820152602e60248201527f496e697469616c697a61626c653a20636f6e747261637420697320616c72656160448201526d191e481a5b9a5d1a585b1a5e995960921b60648201526084015b60405180910390fd5b6000805460ff19166001179055801562000161576000805461ff0019166101001790555b603280546001600160a01b03191661dead1790556035805483151560ff199091161790556200018f620001e9565b8015620001d6576000805461ff0019169055604051600181527f7f26b83ff96e1f2b6a682f133852f6798a09c465da95921460cefb38474024989060200160405180910390a15b5050565b6001600160a01b03163b151590565b600054610100900460ff16620002565760405162461bcd60e51b815260206004820152602b60248201527f496e697469616c697a61626c653a20636f6e7472616374206973206e6f74206960448201526a6e697469616c697a696e6760a81b606482015260840162000134565b60408051606081018252633b9aca0080825260006020830152436001600160401b031691909201819052600160c01b0217600155565b6001600160a01b03811681146200008057600080fd5b60008060008060808587031215620002b957600080fd5b8451620002c6816200028c565b6020860151909450620002d9816200028c565b60408601519093508015158114620002f057600080fd5b606086015190925062000303816200028c565b939692955090935050565b60805160a05160c051615271620003a06000396000818161028f015281816103d20152818161093f01528181610ff0015261124c0152600081816102470152818161066401526123640152600081816101cc0152818161043801528181610b5a01528181610d21015281816111a8015281816114fa015281816117380152818161214c015261251501526152716000f3fe60806040526004361061018e5760003560e01c80638456cb59116100d6578063a35d99df1161007f578063e965084c11610059578063e965084c146105b3578063e9e05c421461063f578063f04987501461065257600080fd5b8063a35d99df146104b9578063cff0ab96146104f2578063d53a822f1461059357600080fd5b80639b5f694a116100b05780639b5f694a146104295780639bf62d821461045c578063a14238e71461048957600080fd5b80638456cb59146103f45780638b4c40b0146101b35780638c3152e91461040957600080fd5b80634f3b457e116101385780636cfd26e9116101125780636cfd26e9146103805780636dbffb78146103a0578063724c184c146103c057600080fd5b80634f3b457e146102d357806354fd4d50146103005780635c975abb1461035657600080fd5b80633f4ba83a116101695780633f4ba83a1461026b578063452a9320146102805780634870496f146102b357600080fd5b80621c2ff6146101ba578063057bbee11461021857806333d7e2bd1461023857600080fd5b366101b5576101b33334620186a0600060405180602001604052806000815250610686565b005b600080fd5b3480156101c657600080fd5b506101ee7f000000000000000000000000000000000000000000000000000000000000000081565b60405173ffffffffffffffffffffffffffffffffffffffff90911681526020015b60405180910390f35b34801561022457600080fd5b506101b3610233366004614694565b6108d3565b34801561024457600080fd5b507f00000000000000000000000000000000000000000000000000000000000000006101ee565b34801561027757600080fd5b506101b3610927565b34801561028c57600080fd5b507f00000000000000000000000000000000000000000000000000000000000000006101ee565b3480156102bf57600080fd5b506101b36102ce366004614874565b610a30565b3480156102df57600080fd5b506064546101ee9073ffffffffffffffffffffffffffffffffffffffff1681565b34801561030c57600080fd5b506103496040518060400160405280600681526020017f312e31312e30000000000000000000000000000000000000000000000000000081525081565b60405161020f919061497b565b34801561036257600080fd5b506035546103709060ff1681565b604051901515815260200161020f565b34801561038c57600080fd5b506101b361039b36600461498e565b610fd8565b3480156103ac57600080fd5b506103706103bb3660046149a9565b61115d565b3480156103cc57600080fd5b506101ee7f000000000000000000000000000000000000000000000000000000000000000081565b34801561040057600080fd5b506101b3611234565b34801561041557600080fd5b506101b36104243660046149c2565b61133a565b34801561043557600080fd5b507f00000000000000000000000000000000000000000000000000000000000000006101ee565b34801561046857600080fd5b506032546101ee9073ffffffffffffffffffffffffffffffffffffffff1681565b34801561049557600080fd5b506103706104a43660046149a9565b60336020526000908152604090205460ff1681565b3480156104c557600080fd5b506104d96104d4366004614a17565b611b2b565b60405167ffffffffffffffff909116815260200161020f565b3480156104fe57600080fd5b5060015461055a906fffffffffffffffffffffffffffffffff81169067ffffffffffffffff7001000000000000000000000000000000008204811691780100000000000000000000000000000000000000000000000090041683565b604080516fffffffffffffffffffffffffffffffff909416845267ffffffffffffffff928316602085015291169082015260600161020f565b34801561059f57600080fd5b506101b36105ae366004614a42565b611b44565b3480156105bf57600080fd5b506106116105ce3660046149a9565b603460205260009081526040902080546001909101546fffffffffffffffffffffffffffffffff8082169170010000000000000000000000000000000090041683565b604080519384526fffffffffffffffffffffffffffffffff928316602085015291169082015260600161020f565b6101b361064d366004614a5d565b610686565b34801561065e57600080fd5b506101ee7f000000000000000000000000000000000000000000000000000000000000000081565b8260005a905083156107235773ffffffffffffffffffffffffffffffffffffffff871615610723576040805162461bcd60e51b81526020600482015260248101919091527f4f7074696d69736d506f7274616c3a206d7573742073656e6420746f2061646460448201527f72657373283029207768656e206372656174696e67206120636f6e747261637460648201526084015b60405180910390fd5b61072d8351611b2b565b67ffffffffffffffff168567ffffffffffffffff1610156107b65760405162461bcd60e51b815260206004820152602360248201527f4f7074696d69736d506f7274616c3a20676173206c696d697420746f6f20736d60448201527f616c6c0000000000000000000000000000000000000000000000000000000000606482015260840161071a565b6201d4c08351111561080a5760405162461bcd60e51b815260206004820152601e60248201527f4f7074696d69736d506f7274616c3a206461746120746f6f206c617267650000604482015260640161071a565b3332811461082b575033731111000000000000000000000000000000001111015b60003488888888604051602001610846959493929190614ad6565b604051602081830303815290604052905060008973ffffffffffffffffffffffffffffffffffffffff168373ffffffffffffffffffffffffffffffffffffffff167fb3813568d9991fc951961fcb4c784893574240a28925604d09fc577c55bb7c32846040516108b6919061497b565b60405180910390a450506108ca8282611d3f565b50505050505050565b8060005b818110156109215761090f8484838181106108f4576108f4614b3b565b90506020028101906109069190614b6a565b61042490614ba8565b8061091981614be3565b9150506108d7565b50505050565b3373ffffffffffffffffffffffffffffffffffffffff7f000000000000000000000000000000000000000000000000000000000000000016146109d25760405162461bcd60e51b815260206004820152602960248201527f4f7074696d69736d506f7274616c3a206f6e6c7920677561726469616e20636160448201527f6e20756e70617573650000000000000000000000000000000000000000000000606482015260840161071a565b603580547fffffffffffffffffffffffffffffffffffffffffffffffffffffffffffffff001690556040513381527f5db9ee0a495bf2e6ff9c91a7834c1ba4fdd244a5e8aa4e537bd38aeae4b073aa906020015b60405180910390a1565b60355460ff1615610a835760405162461bcd60e51b815260206004820152601660248201527f4f7074696d69736d506f7274616c3a2070617573656400000000000000000000604482015260640161071a565b3073ffffffffffffffffffffffffffffffffffffffff16856040015173ffffffffffffffffffffffffffffffffffffffff1603610b285760405162461bcd60e51b815260206004820152603f60248201527f4f7074696d69736d506f7274616c3a20796f752063616e6e6f742073656e642060448201527f6d6573736167657320746f2074686520706f7274616c20636f6e747261637400606482015260840161071a565b6040517fa25ae557000000000000000000000000000000000000000000000000000000008152600481018590526000907f000000000000000000000000000000000000000000000000000000000000000073ffffffffffffffffffffffffffffffffffffffff169063a25ae55790602401606060405180830381865afa158015610bb6573d6000803e3d6000fd5b505050506040513d601f19601f82011682018060405250810190610bda9190614c3b565b519050610bf4610bef36869003860186614ca0565b612052565b8114610c685760405162461bcd60e51b815260206004820152602960248201527f4f7074696d69736d506f7274616c3a20696e76616c6964206f7574707574207260448201527f6f6f742070726f6f660000000000000000000000000000000000000000000000606482015260840161071a565b6000610c73876120ae565b6000818152603460209081526040918290208251606081018452815481526001909101546fffffffffffffffffffffffffffffffff8082169383018490527001000000000000000000000000000000009091041692810192909252919250901580610da55750805160408083015190517fa25ae5570000000000000000000000000000000000000000000000000000000081526fffffffffffffffffffffffffffffffff90911660048201527f000000000000000000000000000000000000000000000000000000000000000073ffffffffffffffffffffffffffffffffffffffff169063a25ae55790602401606060405180830381865afa158015610d7d573d6000803e3d6000fd5b505050506040513d601f19601f82011682018060405250810190610da19190614c3b565b5114155b610e175760405162461bcd60e51b815260206004820152603760248201527f4f7074696d69736d506f7274616c3a207769746864726177616c20686173682060448201527f68617320616c7265616479206265656e2070726f76656e000000000000000000606482015260840161071a565b6040805160208101849052600091810182905260600160408051601f1981840301815282825280516020918201209083018190529250610ea4910160408051601f19818403018152828201909152600182527f0100000000000000000000000000000000000000000000000000000000000000602083015290610e9a888a614d06565b8a604001356120de565b610f165760405162461bcd60e51b815260206004820152603260248201527f4f7074696d69736d506f7274616c3a20696e76616c696420776974686472617760448201527f616c20696e636c7573696f6e2070726f6f660000000000000000000000000000606482015260840161071a565b604080516060810182528581526fffffffffffffffffffffffffffffffff42811660208084019182528c831684860190815260008981526034835286812095518655925190518416700100000000000000000000000000000000029316929092176001909301929092558b830151908c0151925173ffffffffffffffffffffffffffffffffffffffff918216939091169186917f67a6208cfcc0801d50f6cbe764733f4fddf66ac0b04442061a8a8c0cb6b63f629190a4505050505050505050565b3373ffffffffffffffffffffffffffffffffffffffff7f000000000000000000000000000000000000000000000000000000000000000016146110835760405162461bcd60e51b815260206004820152603860248201527f4f61737973506f7274616c3a206f6e6c7920677561726469616e2063616e207360448201527f65742061206e6577206d6573736167652072656c617965720000000000000000606482015260840161071a565b60645473ffffffffffffffffffffffffffffffffffffffff908116908216036110ee5760405162461bcd60e51b815260206004820152601860248201527f4f61737973506f7274616c3a20616c7265616479207365740000000000000000604482015260640161071a565b606480547fffffffffffffffffffffffff00000000000000000000000000000000000000001673ffffffffffffffffffffffffffffffffffffffff83169081179091556040517ffce056bb1203f3a49718c0c063cdde76b64ede7be48768dcf101ca2fc1358cfe90600090a250565b6040517fa25ae5570000000000000000000000000000000000000000000000000000000081526004810182905260009061122e9073ffffffffffffffffffffffffffffffffffffffff7f0000000000000000000000000000000000000000000000000000000000000000169063a25ae55790602401606060405180830381865afa1580156111ef573d6000803e3d6000fd5b505050506040513d601f19601f820116820180604052508101906112139190614c3b565b602001516fffffffffffffffffffffffffffffffff16612102565b92915050565b3373ffffffffffffffffffffffffffffffffffffffff7f000000000000000000000000000000000000000000000000000000000000000016146112df5760405162461bcd60e51b815260206004820152602760248201527f4f7074696d69736d506f7274616c3a206f6e6c7920677561726469616e20636160448201527f6e20706175736500000000000000000000000000000000000000000000000000606482015260840161071a565b603580547fffffffffffffffffffffffffffffffffffffffffffffffffffffffffffffff001660011790556040513381527f62e78cea01bee320cd4e420270b5ea74000d11b0c9f74754ebdbfc544b05a25890602001610a26565b60355460ff161561138d5760405162461bcd60e51b815260206004820152601660248201527f4f7074696d69736d506f7274616c3a2070617573656400000000000000000000604482015260640161071a565b60325473ffffffffffffffffffffffffffffffffffffffff1661dead1461141c5760405162461bcd60e51b815260206004820152603f60248201527f4f7074696d69736d506f7274616c3a2063616e206f6e6c79207472696767657260448201527f206f6e65207769746864726177616c20706572207472616e73616374696f6e00606482015260840161071a565b6000611427826120ae565b60008181526034602090815260408083208151606081018352815481526001909101546fffffffffffffffffffffffffffffffff808216948301859052700100000000000000000000000000000000909104169181019190915292935090036114f85760405162461bcd60e51b815260206004820152603260248201527f4f7074696d69736d506f7274616c3a207769746864726177616c20686173206e60448201527f6f74206265656e2070726f76656e207965740000000000000000000000000000606482015260840161071a565b7f000000000000000000000000000000000000000000000000000000000000000073ffffffffffffffffffffffffffffffffffffffff1663887862726040518163ffffffff1660e01b8152600401602060405180830381865afa158015611563573d6000803e3d6000fd5b505050506040513d601f19601f820116820180604052508101906115879190614d8a565b81602001516fffffffffffffffffffffffffffffffff1610156116385760405162461bcd60e51b815260206004820152604b60248201527f4f7074696d69736d506f7274616c3a207769746864726177616c2074696d657360448201527f74616d70206c657373207468616e204c32204f7261636c65207374617274696e60648201527f672074696d657374616d70000000000000000000000000000000000000000000608482015260a40161071a565b61165781602001516fffffffffffffffffffffffffffffffff16612102565b6116ef5760405162461bcd60e51b815260206004820152604560248201527f4f7074696d69736d506f7274616c3a2070726f76656e2077697468647261776160448201527f6c2066696e616c697a6174696f6e20706572696f6420686173206e6f7420656c60648201527f6170736564000000000000000000000000000000000000000000000000000000608482015260a40161071a565b60408181015190517fa25ae5570000000000000000000000000000000000000000000000000000000081526fffffffffffffffffffffffffffffffff90911660048201526000907f000000000000000000000000000000000000000000000000000000000000000073ffffffffffffffffffffffffffffffffffffffff169063a25ae55790602401606060405180830381865afa158015611794573d6000803e3d6000fd5b505050506040513d601f19601f820116820180604052508101906117b89190614c3b565b82518151919250146118585760405162461bcd60e51b815260206004820152604960248201527f4f7074696d69736d506f7274616c3a206f757470757420726f6f742070726f7660448201527f656e206973206e6f74207468652073616d652061732063757272656e74206f7560648201527f7470757420726f6f740000000000000000000000000000000000000000000000608482015260a40161071a565b61187781602001516fffffffffffffffffffffffffffffffff16612102565b61190f5760405162461bcd60e51b815260206004820152604360248201527f4f7074696d69736d506f7274616c3a206f75747075742070726f706f73616c2060448201527f66696e616c697a6174696f6e20706572696f6420686173206e6f7420656c617060648201527f7365640000000000000000000000000000000000000000000000000000000000608482015260a40161071a565b60008381526033602052604090205460ff16156119945760405162461bcd60e51b815260206004820152603560248201527f4f7074696d69736d506f7274616c3a207769746864726177616c20686173206160448201527f6c7265616479206265656e2066696e616c697a65640000000000000000000000606482015260840161071a565b600083815260336020908152604080832080547fffffffffffffffffffffffffffffffffffffffffffffffffffffffffffffff00166001179055908601516032805473ffffffffffffffffffffffffffffffffffffffff9092167fffffffffffffffffffffffff00000000000000000000000000000000000000009092169190911790558501516080860151606087015160a0880151611a3693929190612209565b603280547fffffffffffffffffffffffff00000000000000000000000000000000000000001661dead17905560405190915084907fdb5c7652857aa163daadd670e116628fb42e869d8ac4251ef8971d9e5727df1b90611a9b90841515815260200190565b60405180910390a280158015611ab15750326001145b15611b245760405162461bcd60e51b815260206004820152602160248201527f4f7074696d69736d506f7274616c3a207769746864726177616c206661696c6560448201527f6400000000000000000000000000000000000000000000000000000000000000606482015260840161071a565b5050505050565b6000611b38826010614da3565b61122e90615208614dd3565b611b4d81611b50565b50565b600054610100900460ff1615808015611b705750600054600160ff909116105b80611b8a5750303b158015611b8a575060005460ff166001145b611bfc5760405162461bcd60e51b815260206004820152602e60248201527f496e697469616c697a61626c653a20636f6e747261637420697320616c72656160448201527f647920696e697469616c697a6564000000000000000000000000000000000000606482015260840161071a565b600080547fffffffffffffffffffffffffffffffffffffffffffffffffffffffffffffff001660011790558015611c5a57600080547fffffffffffffffffffffffffffffffffffffffffffffffffffffffffffff00ff166101001790555b603280547fffffffffffffffffffffffff00000000000000000000000000000000000000001661dead179055603580548315157fffffffffffffffffffffffffffffffffffffffffffffffffffffffffffffff00909116179055611cbc612267565b8015611d1f57600080547fffffffffffffffffffffffffffffffffffffffffffffffffffffffffffff00ff169055604051600181527f7f26b83ff96e1f2b6a682f133852f6798a09c465da95921460cefb38474024989060200160405180910390a15b5050565b73ffffffffffffffffffffffffffffffffffffffff163b151590565b600154600090611d75907801000000000000000000000000000000000000000000000000900467ffffffffffffffff1643614dff565b90506000611d81612330565b90506000816020015160ff16826000015163ffffffff16611da29190614e45565b90508215611ed957600154600090611dd9908390700100000000000000000000000000000000900467ffffffffffffffff16614ead565b90506000836040015160ff1683611df09190614f21565b600154611e109084906fffffffffffffffffffffffffffffffff16614f21565b611e1a9190614e45565b600154909150600090611e6b90611e449084906fffffffffffffffffffffffffffffffff16614fdd565b866060015163ffffffff168760a001516fffffffffffffffffffffffffffffffff166123f6565b90506001861115611e9a57611e97611e4482876040015160ff1660018a611e929190614dff565b612415565b90505b6fffffffffffffffffffffffffffffffff16780100000000000000000000000000000000000000000000000067ffffffffffffffff4316021760015550505b60018054869190601090611f0c908490700100000000000000000000000000000000900467ffffffffffffffff16614dd3565b92506101000a81548167ffffffffffffffff021916908367ffffffffffffffff160217905550816000015163ffffffff16600160000160109054906101000a900467ffffffffffffffff1667ffffffffffffffff161315611fd55760405162461bcd60e51b815260206004820152603e60248201527f5265736f757263654d65746572696e673a2063616e6e6f7420627579206d6f7260448201527f6520676173207468616e20617661696c61626c6520676173206c696d69740000606482015260840161071a565b600154600090612001906fffffffffffffffffffffffffffffffff1667ffffffffffffffff8816615051565b9050600061201348633b9aca0061246a565b61201d908361508e565b905060005a61202c9088614dff565b905080821115612048576120486120438284614dff565b612481565b5050505050505050565b60008160000151826020015183604001518460600151604051602001612091949392919093845260208401929092526040830152606082015260800190565b604051602081830303815290604052805190602001209050919050565b80516020808301516040808501516060860151608087015160a088015193516000976120919790969591016150a2565b6000806120ea866124af565b90506120f8818686866124e1565b9695505050505050565b60645460009073ffffffffffffffffffffffffffffffffffffffff1615801590612143575060645473ffffffffffffffffffffffffffffffffffffffff1633145b156122005760007f000000000000000000000000000000000000000000000000000000000000000073ffffffffffffffffffffffffffffffffffffffff1663b3bd5cf56040518163ffffffff1660e01b8152600401602060405180830381865afa1580156121b5573d6000803e3d6000fd5b505050506040513d601f19601f820116820180604052508101906121d991906150f9565b6fffffffffffffffffffffffffffffffff169050828111156121fe5750600192915050565b505b61122e82612511565b60008060006122198660006125b4565b90508061224f576308c379a06000526020805278185361666543616c6c3a204e6f7420656e6f756768206761736058526064601cfd5b600080855160208701888b5af1979650505050505050565b600054610100900460ff166122e45760405162461bcd60e51b815260206004820152602b60248201527f496e697469616c697a61626c653a20636f6e7472616374206973206e6f74206960448201527f6e697469616c697a696e67000000000000000000000000000000000000000000606482015260840161071a565b60408051606081018252633b9aca00808252600060208301524367ffffffffffffffff169190920181905278010000000000000000000000000000000000000000000000000217600155565b6040805160c081018252600080825260208201819052918101829052606081018290526080810182905260a08101919091527f000000000000000000000000000000000000000000000000000000000000000073ffffffffffffffffffffffffffffffffffffffff1663cc731b026040518163ffffffff1660e01b815260040160c060405180830381865afa1580156123cd573d6000803e3d6000fd5b505050506040513d601f19601f820116820180604052508101906123f19190615139565b905090565b600061240b61240585856125d2565b836125e2565b90505b9392505050565b6000670de0b6b3a764000061245661242d8583614e45565b61243f90670de0b6b3a7640000614ead565b61245185670de0b6b3a7640000614f21565b6125f1565b6124609086614f21565b61240b9190614e45565b60008183101561247a578161240e565b5090919050565b6000805a90505b825a6124949083614dff565b10156124aa576124a382614be3565b9150612488565b505050565b606081805190602001206040516020016124cb91815260200190565b6040516020818303038152906040529050919050565b6000612508846124f2878686612622565b8051602091820120825192909101919091201490565b95945050505050565b60007f000000000000000000000000000000000000000000000000000000000000000073ffffffffffffffffffffffffffffffffffffffff1663f4daa2916040518163ffffffff1660e01b8152600401602060405180830381865afa15801561257e573d6000803e3d6000fd5b505050506040513d601f19601f820116820180604052508101906125a29190614d8a565b6125ac90836151d8565b421192915050565b600080603f83619c4001026040850201603f5a021015949350505050565b60008183121561247a578161240e565b600081831261247a578161240e565b600061240e670de0b6b3a76400008361260986612f34565b6126139190614f21565b61261d9190614e45565b61315e565b606060008451116126755760405162461bcd60e51b815260206004820152601560248201527f4d65726b6c65547269653a20656d707479206b65790000000000000000000000604482015260640161071a565b600061268084613383565b9050600061268d8661346f565b90506000846040516020016126a491815260200190565b60405160208183030381529060405290506000805b8451811015612ec55760008582815181106126d6576126d6614b3b565b6020026020010151905084518311156127575760405162461bcd60e51b815260206004820152602e60248201527f4d65726b6c65547269653a206b657920696e646578206578636565647320746f60448201527f74616c206b6579206c656e677468000000000000000000000000000000000000606482015260840161071a565b826000036127f657805180516020918201206040516127a59261277f92910190815260200190565b604051602081830303815290604052858051602091820120825192909101919091201490565b6127f15760405162461bcd60e51b815260206004820152601d60248201527f4d65726b6c65547269653a20696e76616c696420726f6f742068617368000000604482015260640161071a565b612919565b80515160201161289257805180516020918201206040516128209261277f92910190815260200190565b6127f15760405162461bcd60e51b815260206004820152602760248201527f4d65726b6c65547269653a20696e76616c6964206c6172676520696e7465726e60448201527f616c206861736800000000000000000000000000000000000000000000000000606482015260840161071a565b8051845160208087019190912082519190920120146129195760405162461bcd60e51b815260206004820152602660248201527f4d65726b6c65547269653a20696e76616c696420696e7465726e616c206e6f6460448201527f6520686173680000000000000000000000000000000000000000000000000000606482015260840161071a565b612925601060016151d8565b81602001515103612acd5784518303612a655761295f816020015160108151811061295257612952614b3b565b60200260200101516134d2565b965060008751116129d85760405162461bcd60e51b815260206004820152603b60248201527f4d65726b6c65547269653a2076616c7565206c656e677468206d75737420626560448201527f2067726561746572207468616e207a65726f20286272616e6368290000000000606482015260840161071a565b600186516129e69190614dff565b8214612a5a5760405162461bcd60e51b815260206004820152603a60248201527f4d65726b6c65547269653a2076616c7565206e6f6465206d757374206265206c60448201527f617374206e6f646520696e2070726f6f6620286272616e636829000000000000606482015260840161071a565b50505050505061240e565b6000858481518110612a7957612a79614b3b565b602001015160f81c60f81b60f81c9050600082602001518260ff1681518110612aa457612aa4614b3b565b60200260200101519050612ab7816135fe565b9550612ac46001866151d8565b94505050612eb2565b600281602001515103612e44576000612ae582613623565b9050600081600081518110612afc57612afc614b3b565b016020015160f81c90506000612b136002836151f0565b612b1e906002615212565b90506000612b2f848360ff16613647565b90506000612b3d8a89613647565b90506000612b4b838361367d565b905080835114612bc35760405162461bcd60e51b815260206004820152603a60248201527f4d65726b6c65547269653a20706174682072656d61696e646572206d7573742060448201527f736861726520616c6c206e6962626c65732077697468206b6579000000000000606482015260840161071a565b60ff851660021480612bd8575060ff85166003145b15612d795780825114612c535760405162461bcd60e51b815260206004820152603d60248201527f4d65726b6c65547269653a206b65792072656d61696e646572206d757374206260448201527f65206964656e746963616c20746f20706174682072656d61696e646572000000606482015260840161071a565b612c6d876020015160018151811061295257612952614b3b565b9c5060008d5111612ce65760405162461bcd60e51b815260206004820152603960248201527f4d65726b6c65547269653a2076616c7565206c656e677468206d75737420626560448201527f2067726561746572207468616e207a65726f20286c6561662900000000000000606482015260840161071a565b60018c51612cf49190614dff565b8814612d685760405162461bcd60e51b815260206004820152603860248201527f4d65726b6c65547269653a2076616c7565206e6f6465206d757374206265206c60448201527f617374206e6f646520696e2070726f6f6620286c656166290000000000000000606482015260840161071a565b50505050505050505050505061240e565b60ff85161580612d8c575060ff85166001145b15612dcb57612db88760200151600181518110612dab57612dab614b3b565b60200260200101516135fe565b9950612dc4818a6151d8565b9850612e39565b60405162461bcd60e51b815260206004820152603260248201527f4d65726b6c65547269653a2072656365697665642061206e6f6465207769746860448201527f20616e20756e6b6e6f776e207072656669780000000000000000000000000000606482015260840161071a565b505050505050612eb2565b60405162461bcd60e51b815260206004820152602860248201527f4d65726b6c65547269653a20726563656976656420616e20756e70617273656160448201527f626c65206e6f6465000000000000000000000000000000000000000000000000606482015260840161071a565b5080612ebd81614be3565b9150506126b9565b5060405162461bcd60e51b815260206004820152602560248201527f4d65726b6c65547269653a2072616e206f7574206f662070726f6f6620656c6560448201527f6d656e7473000000000000000000000000000000000000000000000000000000606482015260840161071a565b6000808213612f855760405162461bcd60e51b815260206004820152600960248201527f554e444546494e45440000000000000000000000000000000000000000000000604482015260640161071a565b60006060612f9284613731565b03609f8181039490941b90931c6c465772b2bbbb5f824b15207a3081018102606090811d6d0388eaa27412d5aca026815d636e018202811d6d0df99ac502031bf953eff472fdcc018202811d6d13cdffb29d51d99322bdff5f2211018202811d6d0a0f742023def783a307a986912e018202811d6d01920d8043ca89b5239253284e42018202811d6c0b7a86d7375468fac667a0a527016c29508e458543d8aa4df2abee7883018302821d6d0139601a2efabe717e604cbb4894018302821d6d02247f7a7b6594320649aa03aba1018302821d7fffffffffffffffffffffffffffffffffffffff73c0c716a594e00d54e3c4cbc9018302821d7ffffffffffffffffffffffffffffffffffffffdc7b88c420e53a9890533129f6f01830290911d7fffffffffffffffffffffffffffffffffffffff465fda27eb4d63ded474e5f832019091027ffffffffffffffff5f6af8f7b3396644f18e157960000000000000000000000000105711340daa0d5f769dba1915cef59f0815a5506027d0267a36c0c95b3975ab3ee5b203a7614a3f75373f047d803ae7b6687f2b393909302929092017d57115e47018c7177eebf7cd370a3356a1b7863008a5ae8028c72b88642840160ae1d92915050565b60007ffffffffffffffffffffffffffffffffffffffffffffffffdb731c958f34d94c1821361318f57506000919050565b680755bf798b4a1bf1e582126131e75760405162461bcd60e51b815260206004820152600c60248201527f4558505f4f564552464c4f570000000000000000000000000000000000000000604482015260640161071a565b6503782dace9d9604e83901b059150600060606bb17217f7d1cf79abc9e3b39884821b056b80000000000000000000000001901d6bb17217f7d1cf79abc9e3b39881029093037fffffffffffffffffffffffffffffffffffffffdbf3ccf1604d263450f02a550481018102606090811d6d0277594991cfc85f6e2461837cd9018202811d7fffffffffffffffffffffffffffffffffffffe5adedaa1cb095af9e4da10e363c018202811d6db1bbb201f443cf962f1a1d3db4a5018202811d7ffffffffffffffffffffffffffffffffffffd38dc772608b0ae56cce01296c0eb018202811d6e05180bb14799ab47a8a8cb2a527d57016d02d16720577bd19bf614176fe9ea6c10fe68e7fd37d0007b713f765084018402831d9081019084017ffffffffffffffffffffffffffffffffffffffe2c69812cf03b0763fd454a8f7e010290911d6e0587f503bb6ea29d25fcb7401964500190910279d835ebba824c98fb31b83b2ca45c000000000000000000000000010574029d9dc38563c32e5c2f6dc192ee70ef65f9978af30260c3939093039290921c92915050565b80516060908067ffffffffffffffff8111156133a1576133a16146d6565b6040519080825280602002602001820160405280156133e657816020015b60408051808201909152606080825260208201528152602001906001900390816133bf5790505b50915060005b8181101561346857604051806040016040528085838151811061341157613411614b3b565b6020026020010151815260200161344086848151811061343357613433614b3b565b60200260200101516137ed565b81525083828151811061345557613455614b3b565b60209081029190910101526001016133ec565b5050919050565b606080604051905082518060011b603f8101601f1916830160405280835250602084016020830160005b838110156134c7578060011b82018184015160001a8060041c8253600f811660018301535050600101613499565b509295945050505050565b606060008060006134e285613800565b9194509250905060008160018111156134fd576134fd615235565b146135705760405162461bcd60e51b815260206004820152603960248201527f524c505265616465723a206465636f646564206974656d207479706520666f7260448201527f206279746573206973206e6f7420612064617461206974656d00000000000000606482015260840161071a565b61357a82846151d8565b8551146135ef5760405162461bcd60e51b815260206004820152603460248201527f524c505265616465723a2062797465732076616c756520636f6e7461696e732060448201527f616e20696e76616c69642072656d61696e646572000000000000000000000000606482015260840161071a565b61250885602001518484614135565b6060602082600001511061361a57613615826134d2565b61122e565b61122e826141c9565b606061122e613642836020015160008151811061295257612952614b3b565b61346f565b606082518210613666575060408051602081019091526000815261122e565b61240e83838486516136789190614dff565b6141df565b6000808251845110613690578251613693565b83515b90505b808210801561371a57508282815181106136b2576136b2614b3b565b602001015160f81c60f81b7effffffffffffffffffffffffffffffffffffffffffffffffffffffffffffff19168483815181106136f1576136f1614b3b565b01602001517fff0000000000000000000000000000000000000000000000000000000000000016145b1561372a57816001019150613696565b5092915050565b60008082116137825760405162461bcd60e51b815260206004820152600960248201527f554e444546494e45440000000000000000000000000000000000000000000000604482015260640161071a565b5060016fffffffffffffffffffffffffffffffff821160071b82811c67ffffffffffffffff1060061b1782811c63ffffffff1060051b1782811c61ffff1060041b1782811c60ff10600390811b90911783811c600f1060021b1783811c909110821b1791821c111790565b606061122e6137fb8361434b565b61441a565b6000806000808460000151116138a45760405162461bcd60e51b815260206004820152604a60248201527f524c505265616465723a206c656e677468206f6620616e20524c50206974656d60448201527f206d7573742062652067726561746572207468616e207a65726f20746f20626560648201527f206465636f6461626c6500000000000000000000000000000000000000000000608482015260a40161071a565b6020840151805160001a607f81116138c957600060016000945094509450505061412e565b60b78111613aa35760006138de608083614dff565b90508087600001511161397f5760405162461bcd60e51b815260206004820152604e60248201527f524c505265616465723a206c656e677468206f6620636f6e74656e74206d757360448201527f742062652067726561746572207468616e20737472696e67206c656e6774682060648201527f2873686f727420737472696e6729000000000000000000000000000000000000608482015260a40161071a565b6001838101517fff000000000000000000000000000000000000000000000000000000000000001690821415806139f857507f80000000000000000000000000000000000000000000000000000000000000007fff00000000000000000000000000000000000000000000000000000000000000821610155b613a905760405162461bcd60e51b815260206004820152604d60248201527f524c505265616465723a20696e76616c6964207072656669782c2073696e676c60448201527f652062797465203c203078383020617265206e6f74207072656669786564202860648201527f73686f727420737472696e672900000000000000000000000000000000000000608482015260a40161071a565b506001955093506000925061412e915050565b60bf8111613d89576000613ab860b783614dff565b905080876000015111613b595760405162461bcd60e51b815260206004820152605160248201527f524c505265616465723a206c656e677468206f6620636f6e74656e74206d757360448201527f74206265203e207468616e206c656e677468206f6620737472696e67206c656e60648201527f67746820286c6f6e6720737472696e6729000000000000000000000000000000608482015260a40161071a565b60018301517fff00000000000000000000000000000000000000000000000000000000000000166000819003613c1d5760405162461bcd60e51b815260206004820152604a60248201527f524c505265616465723a206c656e677468206f6620636f6e74656e74206d757360448201527f74206e6f74206861766520616e79206c656164696e67207a65726f7320286c6f60648201527f6e6720737472696e672900000000000000000000000000000000000000000000608482015260a40161071a565b600184015160088302610100031c60378111613cc75760405162461bcd60e51b815260206004820152604860248201527f524c505265616465723a206c656e677468206f6620636f6e74656e74206d757360448201527f742062652067726561746572207468616e20353520627974657320286c6f6e6760648201527f20737472696e6729000000000000000000000000000000000000000000000000608482015260a40161071a565b613cd181846151d8565b895111613d6c5760405162461bcd60e51b815260206004820152604c60248201527f524c505265616465723a206c656e677468206f6620636f6e74656e74206d757360448201527f742062652067726561746572207468616e20746f74616c206c656e677468202860648201527f6c6f6e6720737472696e67290000000000000000000000000000000000000000608482015260a40161071a565b613d778360016151d8565b975095506000945061412e9350505050565b60f78111613e50576000613d9e60c083614dff565b905080876000015111613e3f5760405162461bcd60e51b815260206004820152604a60248201527f524c505265616465723a206c656e677468206f6620636f6e74656e74206d757360448201527f742062652067726561746572207468616e206c697374206c656e67746820287360648201527f686f7274206c6973742900000000000000000000000000000000000000000000608482015260a40161071a565b60019550935084925061412e915050565b6000613e5d60f783614dff565b905080876000015111613efe5760405162461bcd60e51b815260206004820152604d60248201527f524c505265616465723a206c656e677468206f6620636f6e74656e74206d757360448201527f74206265203e207468616e206c656e677468206f66206c697374206c656e677460648201527f6820286c6f6e67206c6973742900000000000000000000000000000000000000608482015260a40161071a565b60018301517fff00000000000000000000000000000000000000000000000000000000000000166000819003613fc25760405162461bcd60e51b815260206004820152604860248201527f524c505265616465723a206c656e677468206f6620636f6e74656e74206d757360448201527f74206e6f74206861766520616e79206c656164696e67207a65726f7320286c6f60648201527f6e67206c69737429000000000000000000000000000000000000000000000000608482015260a40161071a565b600184015160088302610100031c6037811161406c5760405162461bcd60e51b815260206004820152604660248201527f524c505265616465723a206c656e677468206f6620636f6e74656e74206d757360448201527f742062652067726561746572207468616e20353520627974657320286c6f6e6760648201527f206c697374290000000000000000000000000000000000000000000000000000608482015260a40161071a565b61407681846151d8565b8951116141115760405162461bcd60e51b815260206004820152604a60248201527f524c505265616465723a206c656e677468206f6620636f6e74656e74206d757360448201527f742062652067726561746572207468616e20746f74616c206c656e677468202860648201527f6c6f6e67206c6973742900000000000000000000000000000000000000000000608482015260a40161071a565b61411c8360016151d8565b975095506001945061412e9350505050565b9193909250565b60608167ffffffffffffffff811115614150576141506146d6565b6040519080825280601f01601f19166020018201604052801561417a576020820181803683370190505b509050811561240e57600061418f84866151d8565b90506020820160005b848110156141b0578281015182820152602001614198565b848111156141bf576000858301525b5050509392505050565b606061122e826020015160008460000151614135565b60608182601f0110156142345760405162461bcd60e51b815260206004820152600e60248201527f736c6963655f6f766572666c6f77000000000000000000000000000000000000604482015260640161071a565b8282840110156142865760405162461bcd60e51b815260206004820152600e60248201527f736c6963655f6f766572666c6f77000000000000000000000000000000000000604482015260640161071a565b818301845110156142d95760405162461bcd60e51b815260206004820152601160248201527f736c6963655f6f75744f66426f756e6473000000000000000000000000000000604482015260640161071a565b6060821580156142f85760405191506000825260208201604052614342565b6040519150601f8416801560200281840101858101878315602002848b0101015b81831015614331578051835260209283019201614319565b5050858452601f01601f1916604052505b50949350505050565b604080518082019091526000808252602082015260008251116143fc5760405162461bcd60e51b815260206004820152604a60248201527f524c505265616465723a206c656e677468206f6620616e20524c50206974656d60448201527f206d7573742062652067726561746572207468616e207a65726f20746f20626560648201527f206465636f6461626c6500000000000000000000000000000000000000000000608482015260a40161071a565b50604080518082019091528151815260209182019181019190915290565b6060600080600061442a85613800565b91945092509050600181600181111561444557614445615235565b146144b85760405162461bcd60e51b815260206004820152603860248201527f524c505265616465723a206465636f646564206974656d207479706520666f7260448201527f206c697374206973206e6f742061206c697374206974656d0000000000000000606482015260840161071a565b84516144c483856151d8565b146145375760405162461bcd60e51b815260206004820152603260248201527f524c505265616465723a206c697374206974656d2068617320616e20696e766160448201527f6c696420646174612072656d61696e6465720000000000000000000000000000606482015260840161071a565b604080516020808252610420820190925290816020015b604080518082019091526000808252602082015281526020019060019003908161454e5790505093506000835b865181101561463c576000806145c16040518060400160405280858c600001516145a59190614dff565b8152602001858c602001516145ba91906151d8565b9052613800565b5091509150604051806040016040528083836145dd91906151d8565b8152602001848b602001516145f291906151d8565b81525088858151811061460757614607614b3b565b602090810291909101015261461d6001856151d8565b935061462981836151d8565b61463390846151d8565b9250505061457b565b50845250919392505050565b60008083601f84011261465a57600080fd5b50813567ffffffffffffffff81111561467257600080fd5b6020830191508360208260051b850101111561468d57600080fd5b9250929050565b600080602083850312156146a757600080fd5b823567ffffffffffffffff8111156146be57600080fd5b6146ca85828601614648565b90969095509350505050565b7f4e487b7100000000000000000000000000000000000000000000000000000000600052604160045260246000fd5b604051601f8201601f1916810167ffffffffffffffff8111828210171561472e5761472e6146d6565b604052919050565b803573ffffffffffffffffffffffffffffffffffffffff8116811461475a57600080fd5b919050565b600082601f83011261477057600080fd5b813567ffffffffffffffff81111561478a5761478a6146d6565b61479d6020601f19601f84011601614705565b8181528460208386010111156147b257600080fd5b816020850160208301376000918101602001919091529392505050565b600060c082840312156147e157600080fd5b60405160c0810167ffffffffffffffff8282108183111715614805576148056146d6565b816040528293508435835261481c60208601614736565b602084015261482d60408601614736565b6040840152606085013560608401526080850135608084015260a085013591508082111561485a57600080fd5b506148678582860161475f565b60a0830152505092915050565b600080600080600085870360e081121561488d57600080fd5b863567ffffffffffffffff808211156148a557600080fd5b6148b18a838b016147cf565b97506020890135965060807fffffffffffffffffffffffffffffffffffffffffffffffffffffffffffffffc0840112156148ea57600080fd5b60408901955060c089013592508083111561490457600080fd5b505061491288828901614648565b969995985093965092949392505050565b60005b8381101561493e578181015183820152602001614926565b838111156109215750506000910152565b60008151808452614967816020860160208601614923565b601f01601f19169290920160200192915050565b60208152600061240e602083018461494f565b6000602082840312156149a057600080fd5b61240e82614736565b6000602082840312156149bb57600080fd5b5035919050565b6000602082840312156149d457600080fd5b813567ffffffffffffffff8111156149eb57600080fd5b6149f7848285016147cf565b949350505050565b803567ffffffffffffffff8116811461475a57600080fd5b600060208284031215614a2957600080fd5b61240e826149ff565b8035801515811461475a57600080fd5b600060208284031215614a5457600080fd5b61240e82614a32565b600080600080600060a08688031215614a7557600080fd5b614a7e86614736565b945060208601359350614a93604087016149ff565b9250614aa160608701614a32565b9150608086013567ffffffffffffffff811115614abd57600080fd5b614ac98882890161475f565b9150509295509295909350565b8581528460208201527fffffffffffffffff0000000000000000000000000000000000000000000000008460c01b16604082015282151560f81b604882015260008251614b2a816049850160208701614923565b919091016049019695505050505050565b7f4e487b7100000000000000000000000000000000000000000000000000000000600052603260045260246000fd5b600082357fffffffffffffffffffffffffffffffffffffffffffffffffffffffffffffff41833603018112614b9e57600080fd5b9190910192915050565b600061122e36836147cf565b7f4e487b7100000000000000000000000000000000000000000000000000000000600052601160045260246000fd5b60007fffffffffffffffffffffffffffffffffffffffffffffffffffffffffffffffff8203614c1457614c14614bb4565b5060010190565b80516fffffffffffffffffffffffffffffffff8116811461475a57600080fd5b600060608284031215614c4d57600080fd5b6040516060810181811067ffffffffffffffff82111715614c7057614c706146d6565b60405282518152614c8360208401614c1b565b6020820152614c9460408401614c1b565b60408201529392505050565b600060808284031215614cb257600080fd5b6040516080810181811067ffffffffffffffff82111715614cd557614cd56146d6565b8060405250823581526020830135602082015260408301356040820152606083013560608201528091505092915050565b600067ffffffffffffffff80841115614d2157614d216146d6565b8360051b6020614d32818301614705565b868152918501918181019036841115614d4a57600080fd5b865b84811015614d7e57803586811115614d645760008081fd5b614d7036828b0161475f565b845250918301918301614d4c565b50979650505050505050565b600060208284031215614d9c57600080fd5b5051919050565b600067ffffffffffffffff80831681851681830481118215151615614dca57614dca614bb4565b02949350505050565b600067ffffffffffffffff808316818516808303821115614df657614df6614bb4565b01949350505050565b600082821015614e1157614e11614bb4565b500390565b7f4e487b7100000000000000000000000000000000000000000000000000000000600052601260045260246000fd5b600082614e5457614e54614e16565b7fffffffffffffffffffffffffffffffffffffffffffffffffffffffffffffffff83147f800000000000000000000000000000000000000000000000000000000000000083141615614ea857614ea8614bb4565b500590565b6000808312837f800000000000000000000000000000000000000000000000000000000000000001831281151615614ee757614ee7614bb4565b837f7fffffffffffffffffffffffffffffffffffffffffffffffffffffffffffffff018313811615614f1b57614f1b614bb4565b50500390565b60007f7fffffffffffffffffffffffffffffffffffffffffffffffffffffffffffffff600084136000841385830485118282161615614f6257614f62614bb4565b7f80000000000000000000000000000000000000000000000000000000000000006000871286820588128184161615614f9d57614f9d614bb4565b60008712925087820587128484161615614fb957614fb9614bb4565b87850587128184161615614fcf57614fcf614bb4565b505050929093029392505050565b6000808212827f7fffffffffffffffffffffffffffffffffffffffffffffffffffffffffffffff0384138115161561501757615017614bb4565b827f800000000000000000000000000000000000000000000000000000000000000003841281161561504b5761504b614bb4565b50500190565b6000817fffffffffffffffffffffffffffffffffffffffffffffffffffffffffffffffff048311821515161561508957615089614bb4565b500290565b60008261509d5761509d614e16565b500490565b868152600073ffffffffffffffffffffffffffffffffffffffff808816602084015280871660408401525084606083015283608083015260c060a08301526150ed60c083018461494f565b98975050505050505050565b60006020828403121561510b57600080fd5b61240e82614c1b565b805163ffffffff8116811461475a57600080fd5b805160ff8116811461475a57600080fd5b600060c0828403121561514b57600080fd5b60405160c0810181811067ffffffffffffffff8211171561516e5761516e6146d6565b60405261517a83615114565b815261518860208401615128565b602082015261519960408401615128565b60408201526151aa60608401615114565b60608201526151bb60808401615114565b60808201526151cc60a08401614c1b565b60a08201529392505050565b600082198211156151eb576151eb614bb4565b500190565b600060ff83168061520357615203614e16565b8060ff84160691505092915050565b600060ff821660ff84168082101561522c5761522c614bb4565b90039392505050565b7f4e487b7100000000000000000000000000000000000000000000000000000000600052602160045260246000fdfea164736f6c634300080f000a","linkReferences":{}},"methodIdentifiers":{"GUARDIAN()":"724c184c","L2_ORACLE()":"001c2ff6","SYSTEM_CONFIG()":"f0498750","depositTransaction(address,uint256,uint64,bool,bytes)":"e9e05c42","donateETH()":"8b4c40b0","finalizeWithdrawalTransaction((uint256,address,address,uint256,uint256,bytes))":"8c3152e9","finalizeWithdrawalTransactions((uint256,address,address,uint256,uint256,bytes)[])":"057bbee1","finalizedWithdrawals(bytes32)":"a14238e7","guardian()":"452a9320","initialize(bool)":"d53a822f","isOutputFinalized(uint256)":"6dbffb78","l2Oracle()":"9b5f694a","l2Sender()":"9bf62d82","messageRelayer()":"4f3b457e","minimumGasLimit(uint64)":"a35d99df","params()":"cff0ab96","pause()":"8456cb59","paused()":"5c975abb","proveWithdrawalTransaction((uint256,address,address,uint256,uint256,bytes),uint256,(bytes32,bytes32,bytes32,bytes32),bytes[])":"4870496f","provenWithdrawals(bytes32)":"e965084c","setMessageRelayer(address)":"6cfd26e9","systemConfig()":"33d7e2bd","unpause()":"3f4ba83a","version()":"54fd4d50"},"storageLayout":{"storage":[{"astId":41200,"contract":"src/oasys/L1/messaging/OasysPortal.sol:OasysPortal","label":"_initialized","offset":0,"slot":"0","type":"t_uint8"},{"astId":41203,"contract":"src/oasys/L1/messaging/OasysPortal.sol:OasysPortal","label":"_initializing","offset":1,"slot":"0","type":"t_bool"},{"astId":48183,"contract":"src/oasys/L1/messaging/OasysPortal.sol:OasysPortal","label":"params","offset":0,"slot":"1","type":"t_struct(ResourceParams)48166_storage"},{"astId":48188,"contract":"src/oasys/L1/messaging/OasysPortal.sol:OasysPortal","label":"__gap","offset":0,"slot":"2","type":"t_array(t_uint256)48_storage"},{"astId":47243,"contract":"src/oasys/L1/messaging/OasysPortal.sol:OasysPortal","label":"l2Sender","offset":0,"slot":"50","type":"t_address"},{"astId":47248,"contract":"src/oasys/L1/messaging/OasysPortal.sol:OasysPortal","label":"finalizedWithdrawals","offset":0,"slot":"51","type":"t_mapping(t_bytes32,t_bool)"},{"astId":47254,"contract":"src/oasys/L1/messaging/OasysPortal.sol:OasysPortal","label":"provenWithdrawals","offset":0,"slot":"52","type":"t_mapping(t_bytes32,t_struct(ProvenWithdrawal)47221_storage)"},{"astId":47257,"contract":"src/oasys/L1/messaging/OasysPortal.sol:OasysPortal","label":"paused","offset":0,"slot":"53","type":"t_bool"},{"astId":47262,"contract":"src/oasys/L1/messaging/OasysPortal.sol:OasysPortal","label":"__gap","offset":0,"slot":"54","type":"t_array(t_uint256)46_storage"},{"astId":56267,"contract":"src/oasys/L1/messaging/OasysPortal.sol:OasysPortal","label":"messageRelayer","offset":0,"slot":"100","type":"t_address"}],"types":{"t_address":{"encoding":"inplace","label":"address","numberOfBytes":"20"},"t_array(t_uint256)46_storage":{"encoding":"inplace","label":"uint256[46]","numberOfBytes":"1472","base":"t_uint256"},"t_array(t_uint256)48_storage":{"encoding":"inplace","label":"uint256[48]","numberOfBytes":"1536","base":"t_uint256"},"t_bool":{"encoding":"inplace","label":"bool","numberOfBytes":"1"},"t_bytes32":{"encoding":"inplace","label":"bytes32","numberOfBytes":"32"},"t_mapping(t_bytes32,t_bool)":{"encoding":"mapping","key":"t_bytes32","label":"mapping(bytes32 => bool)","numberOfBytes":"32","value":"t_bool"},"t_mapping(t_bytes32,t_struct(ProvenWithdrawal)47221_storage)":{"encoding":"mapping","key":"t_bytes32","label":"mapping(bytes32 => struct OptimismPortal.ProvenWithdrawal)","numberOfBytes":"32","value":"t_struct(ProvenWithdrawal)47221_storage"},"t_struct(ProvenWithdrawal)47221_storage":{"encoding":"inplace","label":"struct OptimismPortal.ProvenWithdrawal","numberOfBytes":"64","members":[{"astId":47216,"contract":"src/oasys/L1/messaging/OasysPortal.sol:OasysPortal","label":"outputRoot","offset":0,"slot":"0","type":"t_bytes32"},{"astId":47218,"contract":"src/oasys/L1/messaging/OasysPortal.sol:OasysPortal","label":"timestamp","offset":0,"slot":"1","type":"t_uint128"},{"astId":47220,"contract":"src/oasys/L1/messaging/OasysPortal.sol:OasysPortal","label":"l2OutputIndex","offset":16,"slot":"1","type":"t_uint128"}]},"t_struct(ResourceParams)48166_storage":{"encoding":"inplace","label":"struct ResourceMetering.ResourceParams","numberOfBytes":"32","members":[{"astId":48161,"contract":"src/oasys/L1/messaging/OasysPortal.sol:OasysPortal","label":"prevBaseFee","offset":0,"slot":"0","type":"t_uint128"},{"astId":48163,"contract":"src/oasys/L1/messaging/OasysPortal.sol:OasysPortal","label":"prevBoughtGas","offset":16,"slot":"0","type":"t_uint64"},{"astId":48165,"contract":"src/oasys/L1/messaging/OasysPortal.sol:OasysPortal","label":"prevBlockNum","offset":24,"slot":"0","type":"t_uint64"}]},"t_uint128":{"encoding":"inplace","label":"uint128","numberOfBytes":"16"},"t_uint256":{"encoding":"inplace","label":"uint256","numberOfBytes":"32"},"t_uint64":{"encoding":"inplace","label":"uint64","numberOfBytes":"8"},"t_uint8":{"encoding":"inplace","label":"uint8","numberOfBytes":"1"}}},"userdoc":{"version":1,"kind":"user","methods":{"GUARDIAN()":{"notice":"Address that has the ability to pause and unpause withdrawals. This will be removed in the         future, use `guardian` instead."},"L2_ORACLE()":{"notice":"Address of the L2OutputOracle contract. This will be removed in the         future, use `l2Oracle` instead."},"SYSTEM_CONFIG()":{"notice":"Address of the SystemConfig contract. This will be removed in the         future, use `systemConfig` instead."},"depositTransaction(address,uint256,uint64,bool,bytes)":{"notice":"Accepts deposits of ETH and data, and emits a TransactionDeposited event for use in         deriving deposit transactions. Note that if a deposit is made by a contract, its         address will be aliased when retrieved using `tx.origin` or `msg.sender`. Consider         using the CrossDomainMessenger contracts for a simpler developer experience."},"donateETH()":{"notice":"Accepts ETH value without triggering a deposit to L2.         This function mainly exists for the sake of the migration between the legacy         Optimism system and Bedrock."},"finalizeWithdrawalTransaction((uint256,address,address,uint256,uint256,bytes))":{"notice":"Finalizes a withdrawal transaction."},"finalizeWithdrawalTransactions((uint256,address,address,uint256,uint256,bytes)[])":{"notice":"Batch finalizes withdrawal transactions.         This method is necessary because it is not possible to check         whether msg.sender is a message relayer via the Multicall contract."},"finalizedWithdrawals(bytes32)":{"notice":"A list of withdrawal hashes which have been successfully finalized."},"guardian()":{"notice":"Getter function for the address of the L2OutputOracle on this chain.Address of the L2OutputOracle on this chain."},"initialize(bool)":{"notice":"Initializer."},"isOutputFinalized(uint256)":{"notice":"Determine if a given output is finalized.         Reverts if the call to L2_ORACLE.getL2Output reverts.         Returns a boolean otherwise."},"l2Oracle()":{"notice":"Getter function for the address of the L2OutputOracle on this chain.Address of the L2OutputOracle on this chain."},"l2Sender()":{"notice":"Address of the L2 account which initiated a withdrawal in this transaction.         If the of this variable is the default L2 sender address, then we are NOT inside of         a call to finalizeWithdrawalTransaction."},"messageRelayer()":{"notice":"Message relayer to allowed immediate withdraw."},"minimumGasLimit(uint64)":{"notice":"Computes the minimum gas limit for a deposit.         The minimum gas limit linearly increases based on the size of the calldata.         This is to prevent users from creating L2 resource usage without paying for it.         This function can be used when interacting with the portal to ensure forwards         compatibility."},"params()":{"notice":"EIP-1559 style gas parameters."},"pause()":{"notice":"Pauses withdrawals."},"paused()":{"notice":"Determines if cross domain messaging is paused.         When set to true, withdrawals are paused.         This may be removed in the future."},"proveWithdrawalTransaction((uint256,address,address,uint256,uint256,bytes),uint256,(bytes32,bytes32,bytes32,bytes32),bytes[])":{"notice":"Proves a withdrawal transaction."},"provenWithdrawals(bytes32)":{"notice":"A mapping of withdrawal hashes to `ProvenWithdrawal` data."},"setMessageRelayer(address)":{"notice":"Set a new message relayer address.         If the zero address is set, no immediate relay of withdrawal messages."},"systemConfig()":{"notice":"Getter function for the address of the SystemConfig on this chain.Address of the SystemConfig on this chain."},"unpause()":{"notice":"Unpauses withdrawals."},"version()":{"notice":"Semantic version."}},"events":{"MessageRelayerSet(address)":{"notice":"Emitted when a new message relayer is set."},"Paused(address)":{"notice":"Emitted when the pause is triggered."},"TransactionDeposited(address,address,uint256,bytes)":{"notice":"Emitted when a transaction is deposited from L1 to L2.         The parameters of this event are read by the rollup node and used to derive deposit         transactions on L2."},"Unpaused(address)":{"notice":"Emitted when the pause is lifted."},"WithdrawalFinalized(bytes32,bool)":{"notice":"Emitted when a withdrawal transaction is finalized."},"WithdrawalProven(bytes32,address,address)":{"notice":"Emitted when a withdrawal transaction is proven."}},"notice":"The OasysPortal is a contract that extends         OptimismPortal to enable fast messaging from L2 to L1."},"devdoc":{"version":1,"kind":"dev","methods":{"depositTransaction(address,uint256,uint64,bool,bytes)":{"params":{"_data":"Data to trigger the recipient with.","_gasLimit":"Amount of L2 gas to purchase by burning gas on L1.","_isCreation":"Whether or not the transaction is a contract creation.","_to":"Target address on L2.","_value":"ETH value to send to the recipient."}},"finalizeWithdrawalTransaction((uint256,address,address,uint256,uint256,bytes))":{"params":{"_tx":"Withdrawal transaction to finalize."}},"isOutputFinalized(uint256)":{"params":{"_l2OutputIndex":"Index of the L2 output to check."},"returns":{"_0":"Whether or not the output is finalized."}},"minimumGasLimit(uint64)":{"params":{"_byteCount":"Number of bytes in the calldata."},"returns":{"_0":"The minimum gas limit for a deposit."}},"proveWithdrawalTransaction((uint256,address,address,uint256,uint256,bytes),uint256,(bytes32,bytes32,bytes32,bytes32),bytes[])":{"params":{"_l2OutputIndex":"L2 output index to prove against.","_outputRootProof":"Inclusion proof of the L2ToL1MessagePasser contract's storage root.","_tx":"Withdrawal transaction to finalize.","_withdrawalProof":"Inclusion proof of the withdrawal in L2ToL1MessagePasser contract."}}},"events":{"MessageRelayerSet(address)":{"params":{"relayer":"The address of the new message relayer."}}}},"id":98}